{"contracts/saleAgreement.sol":{"SaleAgreement":{"abi":[{"inputs":[{"internalType":"address","name":"_arbitrator","type":"address"},{"internalType":"address","name":"_owner","type":"address"}],"stateMutability":"nonpayable","type":"constructor"},{"inputs":[{"internalType":"address","name":"owner","type":"address"}],"name":"OwnableInvalidOwner","type":"error"},{"inputs":[{"internalType":"address","name":"account","type":"address"}],"name":"OwnableUnauthorizedAccount","type":"error"},{"inputs":[],"name":"ReentrancyGuardReentrantCall","type":"error"},{"anonymous":false,"inputs":[{"indexed":true,"internalType":"uint256","name":"agreementId","type":"uint256"},{"indexed":true,"internalType":"address","name":"seller","type":"address"},{"indexed":true,"internalType":"address","name":"buyer","type":"address"},{"indexed":false,"internalType":"uint256","name":"price","type":"uint256"},{"indexed":false,"internalType":"address","name":"tokenAddress","type":"address"}],"name":"AgreementCreated","type":"event"},{"anonymous":false,"inputs":[{"indexed":true,"internalType":"uint256","name":"agreementId","type":"uint256"}],"name":"DisputeRaised","type":"event"},{"anonymous":false,"inputs":[{"indexed":true,"internalType":"uint256","name":"agreementId","type":"uint256"},{"indexed":false,"internalType":"uint256","name":"sellerAmount","type":"uint256"},{"indexed":false,"internalType":"uint256","name":"buyerAmount","type":"uint256"}],"name":"DisputeResolved","type":"event"},{"anonymous":false,"inputs":[{"indexed":true,"internalType":"address","name":"previousOwner","type":"address"},{"indexed":true,"internalType":"address","name":"newOwner","type":"address"}],"name":"OwnershipTransferred","type":"event"},{"anonymous":false,"inputs":[{"indexed":true,"internalType":"uint256","name":"agreementId","type":"uint256"},{"indexed":true,"internalType":"address","name":"payer","type":"address"},{"indexed":false,"internalType":"uint256","name":"amount","type":"uint256"}],"name":"PaymentDeposited","type":"event"},{"inputs":[{"internalType":"uint256","name":"","type":"uint256"}],"name":"agreements","outputs":[{"internalType":"address","name":"seller","type":"address"},{"internalType":"address","name":"buyer","type":"address"},{"internalType":"uint256","name":"price","type":"uint256"},{"internalType":"address","name":"tokenAddress","type":"address"},{"internalType":"bool","name":"isDisputed","type":"bool"},{"internalType":"bool","name":"isResolved","type":"bool"}],"stateMutability":"view","type":"function"},{"inputs":[],"name":"arbitrator","outputs":[{"internalType":"address","name":"","type":"address"}],"stateMutability":"view","type":"function"},{"inputs":[{"internalType":"address","name":"_newArbitrator","type":"address"}],"name":"changeArbitrator","outputs":[],"stateMutability":"nonpayable","type":"function"},{"inputs":[{"internalType":"address","name":"_buyer","type":"address"},{"internalType":"uint256","name":"_price","type":"uint256"},{"internalType":"address","name":"_tokenAddress","type":"address"}],"name":"createAgreement","outputs":[{"internalType":"uint256","name":"","type":"uint256"}],"stateMutability":"nonpayable","type":"function"},{"inputs":[{"internalType":"uint256","name":"_agreementId","type":"uint256"}],"name":"depositPayment","outputs":[],"stateMutability":"payable","type":"function"},{"inputs":[],"name":"nextAgreementId","outputs":[{"internalType":"uint256","name":"","type":"uint256"}],"stateMutability":"view","type":"function"},{"inputs":[],"name":"owner","outputs":[{"internalType":"address","name":"","type":"address"}],"stateMutability":"view","type":"function"},{"inputs":[{"internalType":"uint256","name":"_agreementId","type":"uint256"}],"name":"raiseDispute","outputs":[],"stateMutability":"nonpayable","type":"function"},{"inputs":[],"name":"renounceOwnership","outputs":[],"stateMutability":"nonpayable","type":"function"},{"inputs":[{"internalType":"uint256","name":"_agreementId","type":"uint256"},{"internalType":"uint256","name":"_sellerAmount","type":"uint256"},{"internalType":"uint256","name":"_buyerAmount","type":"uint256"}],"name":"resolveDispute","outputs":[],"stateMutability":"nonpayable","type":"function"},{"inputs":[{"internalType":"address","name":"newOwner","type":"address"}],"name":"transferOwnership","outputs":[],"stateMutability":"nonpayable","type":"function"}],"evm":{"bytecode":{"linkReferences":{},"object":"60806040523480156200001157600080fd5b50604051620027813803806200278183398181016040528101906200003791906200035d565b806001600081905550600073ffffffffffffffffffffffffffffffffffffffff168173ffffffffffffffffffffffffffffffffffffffff1603620000b55760006040517f1e4fbdf7000000000000000000000000000000000000000000000000000000008152600401620000ac9190620003b5565b60405180910390fd5b620000c6816200022a60201b60201c565b50620000e36713eb8bccfc61eb0960c01b620002f060201b60201c565b620000ff67ee644cd5c1d4907860c01b620002f060201b60201c565b6200011b67a0560c42a9be68d760c01b620002f060201b60201c565b6200013767a6cd4fe50405298d60c01b620002f060201b60201c565b600073ffffffffffffffffffffffffffffffffffffffff168273ffffffffffffffffffffffffffffffffffffffff1603620001a9576040517f08c379a0000000000000000000000000000000000000000000000000000000008152600401620001a09062000433565b60405180910390fd5b620001c56779f593e6289f7f0760c01b620002f060201b60201c565b620001e1671e0c5e5d7769f20460c01b620002f060201b60201c565b81600260006101000a81548173ffffffffffffffffffffffffffffffffffffffff021916908373ffffffffffffffffffffffffffffffffffffffff160217905550505062000455565b6000600160009054906101000a900473ffffffffffffffffffffffffffffffffffffffff16905081600160006101000a81548173ffffffffffffffffffffffffffffffffffffffff021916908373ffffffffffffffffffffffffffffffffffffffff1602179055508173ffffffffffffffffffffffffffffffffffffffff168173ffffffffffffffffffffffffffffffffffffffff167f8be0079c531659141344cd1fd0a4f28419497f9722a3daafe3b4186f6b6457e060405160405180910390a35050565b50565b600080fd5b600073ffffffffffffffffffffffffffffffffffffffff82169050919050565b60006200032582620002f8565b9050919050565b620003378162000318565b81146200034357600080fd5b50565b60008151905062000357816200032c565b92915050565b60008060408385031215620003775762000376620002f3565b5b6000620003878582860162000346565b92505060206200039a8582860162000346565b9150509250929050565b620003af8162000318565b82525050565b6000602082019050620003cc6000830184620003a4565b92915050565b600082825260208201905092915050565b7f496e76616c69642061726269747261746f722061646472657373000000000000600082015250565b60006200041b601a83620003d2565b91506200042882620003e3565b602082019050919050565b600060208201905081810360008301526200044e816200040c565b9050919050565b61231c80620004656000396000f3fe60806040526004361061009c5760003560e01c80638da5cb5b116100645780638da5cb5b14610165578063a5c1674e14610190578063bd14de96146101b9578063c9b99dab146101fb578063f2fde38b14610226578063fc548f081461024f5761009c565b80631f40b59e146100a15780633fabe74f146100de5780636b749c47146101075780636cc6cde114610123578063715018a61461014e575b600080fd5b3480156100ad57600080fd5b506100c860048036038101906100c39190611af1565b610278565b6040516100d59190611b53565b60405180910390f35b3480156100ea57600080fd5b5061010560048036038101906101009190611b6e565b610528565b005b610121600480360381019061011c9190611bc1565b610cd8565b005b34801561012f57600080fd5b506101386112b1565b6040516101459190611bfd565b60405180910390f35b34801561015a57600080fd5b506101636112d7565b005b34801561017157600080fd5b5061017a6112eb565b6040516101879190611bfd565b60405180910390f35b34801561019c57600080fd5b506101b760048036038101906101b29190611bc1565b611315565b005b3480156101c557600080fd5b506101e060048036038101906101db9190611bc1565b611608565b6040516101f296959493929190611c33565b60405180910390f35b34801561020757600080fd5b506102106116be565b60405161021d9190611b53565b60405180910390f35b34801561023257600080fd5b5061024d60048036038101906102489190611c94565b6116c4565b005b34801561025b57600080fd5b5061027660048036038101906102719190611c94565b61174a565b005b600061028e675a60ac9c33b510d160c01b6118a5565b6102a267af0374f11a516cdf60c01b6118a5565b6040518060c001604052803373ffffffffffffffffffffffffffffffffffffffff1681526020018573ffffffffffffffffffffffffffffffffffffffff1681526020018481526020018373ffffffffffffffffffffffffffffffffffffffff1681526020016000151581526020016000151581525060036000600454815260200190815260200160002060008201518160000160006101000a81548173ffffffffffffffffffffffffffffffffffffffff021916908373ffffffffffffffffffffffffffffffffffffffff16021790555060208201518160010160006101000a81548173ffffffffffffffffffffffffffffffffffffffff021916908373ffffffffffffffffffffffffffffffffffffffff1602179055506040820151816002015560608201518160030160006101000a81548173ffffffffffffffffffffffffffffffffffffffff021916908373ffffffffffffffffffffffffffffffffffffffff16021790555060808201518160030160146101000a81548160ff02191690831515021790555060a08201518160030160156101000a81548160ff02191690831515021790555090505061046267151a3df9e4a1c70160c01b6118a5565b61047667f619dd95fbb6b83a60c01b6118a5565b8373ffffffffffffffffffffffffffffffffffffffff163373ffffffffffffffffffffffffffffffffffffffff166004547f0c73c79e096f50541645465910102237c855a5979f3e3a5b95ec0323a86e277386866040516104d8929190611cc1565b60405180910390a46104f467e30b681a5fed789b60c01b6118a5565b610508679469c96cce6bb6a860c01b6118a5565b6004600081548092919061051b90611d19565b9190505590509392505050565b61053c679c434777ca0c071360c01b6118a5565b61055067562999ff45bf8bc960c01b6118a5565b61056467043868196f16973d60c01b6118a5565b61057867577d67eebbf4cc5f60c01b6118a5565b61058c678e0a835d1c43815160c01b6118a5565b600260009054906101000a900473ffffffffffffffffffffffffffffffffffffffff1673ffffffffffffffffffffffffffffffffffffffff163373ffffffffffffffffffffffffffffffffffffffff161461061c576040517f08c379a000000000000000000000000000000000000000000000000000000000815260040161061390611dbe565b60405180910390fd5b610630671530b3b6c0ae743760c01b6118a5565b610644675f8ffac62d2f168960c01b6118a5565b610658672d41f13f32a2364260c01b6118a5565b61066c67d454f925bd4c0dfa60c01b6118a5565b610680671082004ac8b24b8760c01b6118a5565b610694673ab6ac940b87d34560c01b6118a5565b60006003600085815260200190815260200160002090506106bf675583216f89dc9a7960c01b6118a5565b6106d36765b5d700d9c30b7560c01b6118a5565b6106e7677820ceb7ec166ee060c01b6118a5565b8060030160149054906101000a900460ff16610738576040517f08c379a000000000000000000000000000000000000000000000000000000000815260040161072f90611e2a565b60405180910390fd5b61074c67b53ed74b633500be60c01b6118a5565b610760678fe07ac850c5214560c01b6118a5565b61077467cacad01d33cb434160c01b6118a5565b610788670aaa58aaa34ca92d60c01b6118a5565b806002015482846107999190611e4a565b146107d9576040517f08c379a00000000000000000000000000000000000000000000000000000000081526004016107d090611eca565b60405180910390fd5b6107ed67b503c08f75d5f01960c01b6118a5565b61080167c8c1cb76ff7069c060c01b6118a5565b61081567fbb81451c6afd20560c01b6118a5565b600073ffffffffffffffffffffffffffffffffffffffff168160030160009054906101000a900473ffffffffffffffffffffffffffffffffffffffff1673ffffffffffffffffffffffffffffffffffffffff16036109ac576108816753dd22082ff2736460c01b6118a5565b61089567bdfd699da53dd02760c01b6118a5565b6108a9671b1b2a9b7abbcac960c01b6118a5565b8060000160009054906101000a900473ffffffffffffffffffffffffffffffffffffffff1673ffffffffffffffffffffffffffffffffffffffff166108fc849081150290604051600060405180830381858888f19350505050158015610913573d6000803e3d6000fd5b506109286794ff6f4b34dcd61660c01b6118a5565b61093c67ef1dd3ef4669ec4a60c01b6118a5565b8060010160009054906101000a900473ffffffffffffffffffffffffffffffffffffffff1673ffffffffffffffffffffffffffffffffffffffff166108fc839081150290604051600060405180830381858888f193505050501580156109a6573d6000803e3d6000fd5b50610c3f565b6109c06768eb8149cab2f22660c01b6118a5565b6109d46778d6a88eabb09a5f60c01b6118a5565b6109e86781823149c3ae33da60c01b6118a5565b60008160030160009054906101000a900473ffffffffffffffffffffffffffffffffffffffff169050610a2567eb84ade1d72386f060c01b6118a5565b610a3967521fa937bbbf5d0f60c01b6118a5565b6000841115610b1257610a56678b38e3f0c7033bc960c01b6118a5565b610a6a673d48f7cccce0324860c01b6118a5565b8073ffffffffffffffffffffffffffffffffffffffff1663a9059cbb8360000160009054906101000a900473ffffffffffffffffffffffffffffffffffffffff16866040518363ffffffff1660e01b8152600401610ac9929190611eea565b6020604051808303816000875af1158015610ae8573d6000803e3d6000fd5b505050506040513d601f19601f82011682018060405250810190610b0c9190611f3f565b50610b27565b610b2667b10e5e54131a8fd760c01b6118a5565b5b610b3b67e83e73107463c37b60c01b6118a5565b610b4f67cc41d8100f8afac560c01b6118a5565b6000831115610c2857610b6c6784b5b4f8e83f937b60c01b6118a5565b610b80678a6a3a5bd84c88b760c01b6118a5565b8073ffffffffffffffffffffffffffffffffffffffff1663a9059cbb8360010160009054906101000a900473ffffffffffffffffffffffffffffffffffffffff16856040518363ffffffff1660e01b8152600401610bdf929190611eea565b6020604051808303816000875af1158015610bfe573d6000803e3d6000fd5b505050506040513d601f19601f82011682018060405250810190610c229190611f3f565b50610c3d565b610c3c678b1c6e695723d07460c01b6118a5565b5b505b610c53673dc23aa29a307f6060c01b6118a5565b60018160030160156101000a81548160ff021916908315150217905550610c8467940327bc952f508660c01b6118a5565b610c9867ea2e1646e4a93f4860c01b6118a5565b837f959dc01840aa516bf9407cffa45326c7b6821c48feff7b91eb0c743c8f460fd68484604051610cca929190611f6c565b60405180910390a250505050565b610cec67e16820ea88c6a03660c01b6118a5565b610cf46118a8565b610d0867eec26363789b78fb60c01b6118a5565b610d1c67f8ebdaedba067ed060c01b6118a5565b610d30670bde53c9eacd22ed60c01b6118a5565b610d4467814e89688377755b60c01b6118a5565b6000600360008381526020019081526020016000209050610d6f67fce8970ddd99a00a60c01b6118a5565b610d83677f0675ddd7f1de9060c01b6118a5565b610d9767b14e782b255e7f6e60c01b6118a5565b8060010160009054906101000a900473ffffffffffffffffffffffffffffffffffffffff1673ffffffffffffffffffffffffffffffffffffffff163373ffffffffffffffffffffffffffffffffffffffff1614610e29576040517f08c379a0000000000000000000000000000000000000000000000000000000008152600401610e2090611fe1565b60405180910390fd5b610e3d6778b44a5a9e7f237a60c01b6118a5565b610e51676974d2b3693dfa1a60c01b6118a5565b610e656771332ecbdb8c0cef60c01b6118a5565b610e7967a1e7a87b55ca4ad160c01b6118a5565b8060030160149054906101000a900460ff1615610ecb576040517f08c379a0000000000000000000000000000000000000000000000000000000008152600401610ec29061204d565b60405180910390fd5b610edf67e8c263ac70264a4960c01b6118a5565b610ef36720223b70a5be9a1160c01b6118a5565b610f07670b510882dead0f8760c01b6118a5565b610f1b6730961ad4479d184760c01b6118a5565b8060030160159054906101000a900460ff1615610f6d576040517f08c379a0000000000000000000000000000000000000000000000000000000008152600401610f64906120b9565b60405180910390fd5b610f8167993f61310e46d8b360c01b6118a5565b610f9567ce5268a2e9cda57260c01b6118a5565b610fa967feea183171cce47660c01b6118a5565b600073ffffffffffffffffffffffffffffffffffffffff168160030160009054906101000a900473ffffffffffffffffffffffffffffffffffffffff1673ffffffffffffffffffffffffffffffffffffffff16036110b05761101567a8fc352ef111a58460c01b6118a5565b61102967697f77d0f33cf3d260c01b6118a5565b61103d6709e091dac4c1acf760c01b6118a5565b6110516742b3564a3e5343ef60c01b6118a5565b80600201543414611097576040517f08c379a000000000000000000000000000000000000000000000000000000000815260040161108e90612125565b60405180910390fd5b6110ab67fd9b03540ca896b060c01b6118a5565b61122a565b6110c46733d8e9f1eebe892a60c01b6118a5565b6110d86774431536692fb6e660c01b6118a5565b6110ec67b0a91cdc8c1b6ae160c01b6118a5565b60008160030160009054906101000a900473ffffffffffffffffffffffffffffffffffffffff16905061112967963aafc978a8aed060c01b6118a5565b61113d67a67240314aace6f460c01b6118a5565b61115167f120b4cadd5acac060c01b6118a5565b8073ffffffffffffffffffffffffffffffffffffffff166323b872dd333085600201546040518463ffffffff1660e01b815260040161119293929190612145565b6020604051808303816000875af11580156111b1573d6000803e3d6000fd5b505050506040513d601f19601f820116820180604052508101906111d59190611f3f565b611214576040517f08c379a000000000000000000000000000000000000000000000000000000000815260040161120b906121c8565b60405180910390fd5b61122867e1edb94139c833d460c01b6118a5565b505b61123e677f47e71081f1b5f460c01b6118a5565b6112526729052edb0946debc60c01b6118a5565b3373ffffffffffffffffffffffffffffffffffffffff16827f71284872bb4c088a81295dff2513729babbccfeda38a8d824bb1a73bcaab494e836002015460405161129d9190611b53565b60405180910390a3506112ae6118ee565b50565b600260009054906101000a900473ffffffffffffffffffffffffffffffffffffffff1681565b6112df6118f8565b6112e9600061197f565b565b6000600160009054906101000a900473ffffffffffffffffffffffffffffffffffffffff16905090565b611329670c600aff2e4a904b60c01b6118a5565b61133d6733ef38379f29d98c60c01b6118a5565b611351670139d1184897318b60c01b6118a5565b600060036000838152602001908152602001600020905061137c67905c10f10716a32e60c01b6118a5565b6113906749cbdfa8cf65b1dc60c01b6118a5565b6113a4678a6230bd509e215e60c01b6118a5565b8060010160009054906101000a900473ffffffffffffffffffffffffffffffffffffffff1673ffffffffffffffffffffffffffffffffffffffff163373ffffffffffffffffffffffffffffffffffffffff16148015611413575061141267365c96814285dd9c60c01b611a45565b5b8061148957508060000160009054906101000a900473ffffffffffffffffffffffffffffffffffffffff1673ffffffffffffffffffffffffffffffffffffffff163373ffffffffffffffffffffffffffffffffffffffff1614801561148857506114876799c05bd081993edf60c01b611a45565b5b5b6114c8576040517f08c379a00000000000000000000000000000000000000000000000000000000081526004016114bf9061225a565b60405180910390fd5b6114dc679938d644f6568c8260c01b6118a5565b6114f067d3960a08ce018dc660c01b6118a5565b61150467de0b004053ffa70060c01b6118a5565b6115186769de5bcffde1290f60c01b6118a5565b8060030160159054906101000a900460ff161561156a576040517f08c379a0000000000000000000000000000000000000000000000000000000008152600401611561906120b9565b60405180910390fd5b61157e67cdcd8fa06294208d60c01b6118a5565b6115926756434335051d664460c01b6118a5565b60018160030160146101000a81548160ff0219169083151502179055506115c3676c869a55675faea060c01b6118a5565b6115d767f47b22e8493c537060c01b6118a5565b817f04901f83201c8724eadf084436db8aa391820bae6d11f9f78a17edb6f2eef3cf60405160405180910390a25050565b60036020528060005260406000206000915090508060000160009054906101000a900473ffffffffffffffffffffffffffffffffffffffff16908060010160009054906101000a900473ffffffffffffffffffffffffffffffffffffffff16908060020154908060030160009054906101000a900473ffffffffffffffffffffffffffffffffffffffff16908060030160149054906101000a900460ff16908060030160159054906101000a900460ff16905086565b60045481565b6116cc6118f8565b600073ffffffffffffffffffffffffffffffffffffffff168173ffffffffffffffffffffffffffffffffffffffff160361173e5760006040517f1e4fbdf70000000000000000000000000000000000000000000000000000000081526004016117359190611bfd565b60405180910390fd5b6117478161197f565b50565b61175e67ca1bc3aa6c19a60060c01b6118a5565b6117666118f8565b61177a6797c78da9992ccdcc60c01b6118a5565b61178e67aa0748ca06660b9560c01b6118a5565b6117a267dac944cb93c9897360c01b6118a5565b6117b6676f56a6047af1d53e60c01b6118a5565b6117ca672b7d477ec6161f0660c01b6118a5565b600073ffffffffffffffffffffffffffffffffffffffff168173ffffffffffffffffffffffffffffffffffffffff1603611839576040517f08c379a0000000000000000000000000000000000000000000000000000000008152600401611830906122c6565b60405180910390fd5b61184d6715fcc6eee9191df060c01b6118a5565b611861673c3c68d54b9b4a8c60c01b6118a5565b80600260006101000a81548173ffffffffffffffffffffffffffffffffffffffff021916908373ffffffffffffffffffffffffffffffffffffffff16021790555050565b50565b6002600054036118e4576040517f3ee5aeb500000000000000000000000000000000000000000000000000000000815260040160405180910390fd5b6002600081905550565b6001600081905550565b611900611a50565b73ffffffffffffffffffffffffffffffffffffffff1661191e6112eb565b73ffffffffffffffffffffffffffffffffffffffff161461197d57611941611a50565b6040517f118cdaa70000000000000000000000000000000000000000000000000000000081526004016119749190611bfd565b60405180910390fd5b565b6000600160009054906101000a900473ffffffffffffffffffffffffffffffffffffffff16905081600160006101000a81548173ffffffffffffffffffffffffffffffffffffffff021916908373ffffffffffffffffffffffffffffffffffffffff1602179055508173ffffffffffffffffffffffffffffffffffffffff168173ffffffffffffffffffffffffffffffffffffffff167f8be0079c531659141344cd1fd0a4f28419497f9722a3daafe3b4186f6b6457e060405160405180910390a35050565b600060019050919050565b600033905090565b600080fd5b600073ffffffffffffffffffffffffffffffffffffffff82169050919050565b6000611a8882611a5d565b9050919050565b611a9881611a7d565b8114611aa357600080fd5b50565b600081359050611ab581611a8f565b92915050565b6000819050919050565b611ace81611abb565b8114611ad957600080fd5b50565b600081359050611aeb81611ac5565b92915050565b600080600060608486031215611b0a57611b09611a58565b5b6000611b1886828701611aa6565b9350506020611b2986828701611adc565b9250506040611b3a86828701611aa6565b9150509250925092565b611b4d81611abb565b82525050565b6000602082019050611b686000830184611b44565b92915050565b600080600060608486031215611b8757611b86611a58565b5b6000611b9586828701611adc565b9350506020611ba686828701611adc565b9250506040611bb786828701611adc565b9150509250925092565b600060208284031215611bd757611bd6611a58565b5b6000611be584828501611adc565b91505092915050565b611bf781611a7d565b82525050565b6000602082019050611c126000830184611bee565b92915050565b60008115159050919050565b611c2d81611c18565b82525050565b600060c082019050611c486000830189611bee565b611c556020830188611bee565b611c626040830187611b44565b611c6f6060830186611bee565b611c7c6080830185611c24565b611c8960a0830184611c24565b979650505050505050565b600060208284031215611caa57611ca9611a58565b5b6000611cb884828501611aa6565b91505092915050565b6000604082019050611cd66000830185611b44565b611ce36020830184611bee565b9392505050565b7f4e487b7100000000000000000000000000000000000000000000000000000000600052601160045260246000fd5b6000611d2482611abb565b91507fffffffffffffffffffffffffffffffffffffffffffffffffffffffffffffffff8203611d5657611d55611cea565b5b600182019050919050565b600082825260208201905092915050565b7f43616c6c6572206973206e6f74207468652061726269747261746f7200000000600082015250565b6000611da8601c83611d61565b9150611db382611d72565b602082019050919050565b60006020820190508181036000830152611dd781611d9b565b9050919050565b7f41677265656d656e74206973206e6f7420646973707574656400000000000000600082015250565b6000611e14601983611d61565b9150611e1f82611dde565b602082019050919050565b60006020820190508181036000830152611e4381611e07565b9050919050565b6000611e5582611abb565b9150611e6083611abb565b9250828201905080821115611e7857611e77611cea565b5b92915050565b7f496e636f727265637420616c6c6f636174696f6e000000000000000000000000600082015250565b6000611eb4601483611d61565b9150611ebf82611e7e565b602082019050919050565b60006020820190508181036000830152611ee381611ea7565b9050919050565b6000604082019050611eff6000830185611bee565b611f0c6020830184611b44565b9392505050565b611f1c81611c18565b8114611f2757600080fd5b50565b600081519050611f3981611f13565b92915050565b600060208284031215611f5557611f54611a58565b5b6000611f6384828501611f2a565b91505092915050565b6000604082019050611f816000830185611b44565b611f8e6020830184611b44565b9392505050565b7f43616c6c6572206973206e6f7420746865206275796572000000000000000000600082015250565b6000611fcb601783611d61565b9150611fd682611f95565b602082019050919050565b60006020820190508181036000830152611ffa81611fbe565b9050919050565b7f41677265656d656e742069732064697370757465640000000000000000000000600082015250565b6000612037601583611d61565b915061204282612001565b602082019050919050565b600060208201905081810360008301526120668161202a565b9050919050565b7f41677265656d656e7420697320616c7265616479207265736f6c766564000000600082015250565b60006120a3601d83611d61565b91506120ae8261206d565b602082019050919050565b600060208201905081810360008301526120d281612096565b9050919050565b7f496e636f72726563742045544820616d6f756e74000000000000000000000000600082015250565b600061210f601483611d61565b915061211a826120d9565b602082019050919050565b6000602082019050818103600083015261213e81612102565b9050919050565b600060608201905061215a6000830186611bee565b6121676020830185611bee565b6121746040830184611b44565b949350505050565b7f546f6b656e207472616e73666572206661696c65640000000000000000000000600082015250565b60006121b2601583611d61565b91506121bd8261217c565b602082019050919050565b600060208201905081810360008301526121e1816121a5565b9050919050565b7f43616c6c6572206973206e6f742070617274206f66207468652061677265656d60008201527f656e740000000000000000000000000000000000000000000000000000000000602082015250565b6000612244602383611d61565b915061224f826121e8565b604082019050919050565b6000602082019050818103600083015261227381612237565b9050919050565b7f496e76616c69642061726269747261746f722061646472657373000000000000600082015250565b60006122b0601a83611d61565b91506122bb8261227a565b602082019050919050565b600060208201905081810360008301526122df816122a3565b905091905056fea2646970667358221220346a8acb82bc4ae08ec42fa222b3df430cea80c31caf0b76e14a3f5e64e3b66764736f6c63430008140033","opcodes":"PUSH1 0x80 PUSH1 0x40 MSTORE CALLVALUE DUP1 ISZERO PUSH3 0x11 JUMPI PUSH1 0x0 DUP1 REVERT JUMPDEST POP PUSH1 0x40 MLOAD PUSH3 0x2781 CODESIZE SUB DUP1 PUSH3 0x2781 DUP4 CODECOPY DUP2 DUP2 ADD PUSH1 0x40 MSTORE DUP2 ADD SWAP1 PUSH3 0x37 SWAP2 SWAP1 PUSH3 0x35D JUMP JUMPDEST DUP1 PUSH1 0x1 PUSH1 0x0 DUP2 SWAP1 SSTORE POP PUSH1 0x0 PUSH20 0xFFFFFFFFFFFFFFFFFFFFFFFFFFFFFFFFFFFFFFFF AND DUP2 PUSH20 0xFFFFFFFFFFFFFFFFFFFFFFFFFFFFFFFFFFFFFFFF AND SUB PUSH3 0xB5 JUMPI PUSH1 0x0 PUSH1 0x40 MLOAD PUSH32 0x1E4FBDF700000000000000000000000000000000000000000000000000000000 DUP2 MSTORE PUSH1 0x4 ADD PUSH3 0xAC SWAP2 SWAP1 PUSH3 0x3B5 JUMP JUMPDEST PUSH1 0x40 MLOAD DUP1 SWAP2 SUB SWAP1 REVERT JUMPDEST PUSH3 0xC6 DUP2 PUSH3 0x22A PUSH1 0x20 SHL PUSH1 0x20 SHR JUMP JUMPDEST POP PUSH3 0xE3 PUSH8 0x13EB8BCCFC61EB09 PUSH1 0xC0 SHL PUSH3 0x2F0 PUSH1 0x20 SHL PUSH1 0x20 SHR JUMP JUMPDEST PUSH3 0xFF PUSH8 0xEE644CD5C1D49078 PUSH1 0xC0 SHL PUSH3 0x2F0 PUSH1 0x20 SHL PUSH1 0x20 SHR JUMP JUMPDEST PUSH3 0x11B PUSH8 0xA0560C42A9BE68D7 PUSH1 0xC0 SHL PUSH3 0x2F0 PUSH1 0x20 SHL PUSH1 0x20 SHR JUMP JUMPDEST PUSH3 0x137 PUSH8 0xA6CD4FE50405298D PUSH1 0xC0 SHL PUSH3 0x2F0 PUSH1 0x20 SHL PUSH1 0x20 SHR JUMP JUMPDEST PUSH1 0x0 PUSH20 0xFFFFFFFFFFFFFFFFFFFFFFFFFFFFFFFFFFFFFFFF AND DUP3 PUSH20 0xFFFFFFFFFFFFFFFFFFFFFFFFFFFFFFFFFFFFFFFF AND SUB PUSH3 0x1A9 JUMPI PUSH1 0x40 MLOAD PUSH32 0x8C379A000000000000000000000000000000000000000000000000000000000 DUP2 MSTORE PUSH1 0x4 ADD PUSH3 0x1A0 SWAP1 PUSH3 0x433 JUMP JUMPDEST PUSH1 0x40 MLOAD DUP1 SWAP2 SUB SWAP1 REVERT JUMPDEST PUSH3 0x1C5 PUSH8 0x79F593E6289F7F07 PUSH1 0xC0 SHL PUSH3 0x2F0 PUSH1 0x20 SHL PUSH1 0x20 SHR JUMP JUMPDEST PUSH3 0x1E1 PUSH8 0x1E0C5E5D7769F204 PUSH1 0xC0 SHL PUSH3 0x2F0 PUSH1 0x20 SHL PUSH1 0x20 SHR JUMP JUMPDEST DUP2 PUSH1 0x2 PUSH1 0x0 PUSH2 0x100 EXP DUP2 SLOAD DUP2 PUSH20 0xFFFFFFFFFFFFFFFFFFFFFFFFFFFFFFFFFFFFFFFF MUL NOT AND SWAP1 DUP4 PUSH20 0xFFFFFFFFFFFFFFFFFFFFFFFFFFFFFFFFFFFFFFFF AND MUL OR SWAP1 SSTORE POP POP POP PUSH3 0x455 JUMP JUMPDEST PUSH1 0x0 PUSH1 0x1 PUSH1 0x0 SWAP1 SLOAD SWAP1 PUSH2 0x100 EXP SWAP1 DIV PUSH20 0xFFFFFFFFFFFFFFFFFFFFFFFFFFFFFFFFFFFFFFFF AND SWAP1 POP DUP2 PUSH1 0x1 PUSH1 0x0 PUSH2 0x100 EXP DUP2 SLOAD DUP2 PUSH20 0xFFFFFFFFFFFFFFFFFFFFFFFFFFFFFFFFFFFFFFFF MUL NOT AND SWAP1 DUP4 PUSH20 0xFFFFFFFFFFFFFFFFFFFFFFFFFFFFFFFFFFFFFFFF AND MUL OR SWAP1 SSTORE POP DUP2 PUSH20 0xFFFFFFFFFFFFFFFFFFFFFFFFFFFFFFFFFFFFFFFF AND DUP2 PUSH20 0xFFFFFFFFFFFFFFFFFFFFFFFFFFFFFFFFFFFFFFFF AND PUSH32 0x8BE0079C531659141344CD1FD0A4F28419497F9722A3DAAFE3B4186F6B6457E0 PUSH1 0x40 MLOAD PUSH1 0x40 MLOAD DUP1 SWAP2 SUB SWAP1 LOG3 POP POP JUMP JUMPDEST POP JUMP JUMPDEST PUSH1 0x0 DUP1 REVERT JUMPDEST PUSH1 0x0 PUSH20 0xFFFFFFFFFFFFFFFFFFFFFFFFFFFFFFFFFFFFFFFF DUP3 AND SWAP1 POP SWAP2 SWAP1 POP JUMP JUMPDEST PUSH1 0x0 PUSH3 0x325 DUP3 PUSH3 0x2F8 JUMP JUMPDEST SWAP1 POP SWAP2 SWAP1 POP JUMP JUMPDEST PUSH3 0x337 DUP2 PUSH3 0x318 JUMP JUMPDEST DUP2 EQ PUSH3 0x343 JUMPI PUSH1 0x0 DUP1 REVERT JUMPDEST POP JUMP JUMPDEST PUSH1 0x0 DUP2 MLOAD SWAP1 POP PUSH3 0x357 DUP2 PUSH3 0x32C JUMP JUMPDEST SWAP3 SWAP2 POP POP JUMP JUMPDEST PUSH1 0x0 DUP1 PUSH1 0x40 DUP4 DUP6 SUB SLT ISZERO PUSH3 0x377 JUMPI PUSH3 0x376 PUSH3 0x2F3 JUMP JUMPDEST JUMPDEST PUSH1 0x0 PUSH3 0x387 DUP6 DUP3 DUP7 ADD PUSH3 0x346 JUMP JUMPDEST SWAP3 POP POP PUSH1 0x20 PUSH3 0x39A DUP6 DUP3 DUP7 ADD PUSH3 0x346 JUMP JUMPDEST SWAP2 POP POP SWAP3 POP SWAP3 SWAP1 POP JUMP JUMPDEST PUSH3 0x3AF DUP2 PUSH3 0x318 JUMP JUMPDEST DUP3 MSTORE POP POP JUMP JUMPDEST PUSH1 0x0 PUSH1 0x20 DUP3 ADD SWAP1 POP PUSH3 0x3CC PUSH1 0x0 DUP4 ADD DUP5 PUSH3 0x3A4 JUMP JUMPDEST SWAP3 SWAP2 POP POP JUMP JUMPDEST PUSH1 0x0 DUP3 DUP3 MSTORE PUSH1 0x20 DUP3 ADD SWAP1 POP SWAP3 SWAP2 POP POP JUMP JUMPDEST PUSH32 0x496E76616C69642061726269747261746F722061646472657373000000000000 PUSH1 0x0 DUP3 ADD MSTORE POP JUMP JUMPDEST PUSH1 0x0 PUSH3 0x41B PUSH1 0x1A DUP4 PUSH3 0x3D2 JUMP JUMPDEST SWAP2 POP PUSH3 0x428 DUP3 PUSH3 0x3E3 JUMP JUMPDEST PUSH1 0x20 DUP3 ADD SWAP1 POP SWAP2 SWAP1 POP JUMP JUMPDEST PUSH1 0x0 PUSH1 0x20 DUP3 ADD SWAP1 POP DUP2 DUP2 SUB PUSH1 0x0 DUP4 ADD MSTORE PUSH3 0x44E DUP2 PUSH3 0x40C JUMP JUMPDEST SWAP1 POP SWAP2 SWAP1 POP JUMP JUMPDEST PUSH2 0x231C DUP1 PUSH3 0x465 PUSH1 0x0 CODECOPY PUSH1 0x0 RETURN INVALID PUSH1 0x80 PUSH1 0x40 MSTORE PUSH1 0x4 CALLDATASIZE LT PUSH2 0x9C JUMPI PUSH1 0x0 CALLDATALOAD PUSH1 0xE0 SHR DUP1 PUSH4 0x8DA5CB5B GT PUSH2 0x64 JUMPI DUP1 PUSH4 0x8DA5CB5B EQ PUSH2 0x165 JUMPI DUP1 PUSH4 0xA5C1674E EQ PUSH2 0x190 JUMPI DUP1 PUSH4 0xBD14DE96 EQ PUSH2 0x1B9 JUMPI DUP1 PUSH4 0xC9B99DAB EQ PUSH2 0x1FB JUMPI DUP1 PUSH4 0xF2FDE38B EQ PUSH2 0x226 JUMPI DUP1 PUSH4 0xFC548F08 EQ PUSH2 0x24F JUMPI PUSH2 0x9C JUMP JUMPDEST DUP1 PUSH4 0x1F40B59E EQ PUSH2 0xA1 JUMPI DUP1 PUSH4 0x3FABE74F EQ PUSH2 0xDE JUMPI DUP1 PUSH4 0x6B749C47 EQ PUSH2 0x107 JUMPI DUP1 PUSH4 0x6CC6CDE1 EQ PUSH2 0x123 JUMPI DUP1 PUSH4 0x715018A6 EQ PUSH2 0x14E JUMPI JUMPDEST PUSH1 0x0 DUP1 REVERT JUMPDEST CALLVALUE DUP1 ISZERO PUSH2 0xAD JUMPI PUSH1 0x0 DUP1 REVERT JUMPDEST POP PUSH2 0xC8 PUSH1 0x4 DUP1 CALLDATASIZE SUB DUP2 ADD SWAP1 PUSH2 0xC3 SWAP2 SWAP1 PUSH2 0x1AF1 JUMP JUMPDEST PUSH2 0x278 JUMP JUMPDEST PUSH1 0x40 MLOAD PUSH2 0xD5 SWAP2 SWAP1 PUSH2 0x1B53 JUMP JUMPDEST PUSH1 0x40 MLOAD DUP1 SWAP2 SUB SWAP1 RETURN JUMPDEST CALLVALUE DUP1 ISZERO PUSH2 0xEA JUMPI PUSH1 0x0 DUP1 REVERT JUMPDEST POP PUSH2 0x105 PUSH1 0x4 DUP1 CALLDATASIZE SUB DUP2 ADD SWAP1 PUSH2 0x100 SWAP2 SWAP1 PUSH2 0x1B6E JUMP JUMPDEST PUSH2 0x528 JUMP JUMPDEST STOP JUMPDEST PUSH2 0x121 PUSH1 0x4 DUP1 CALLDATASIZE SUB DUP2 ADD SWAP1 PUSH2 0x11C SWAP2 SWAP1 PUSH2 0x1BC1 JUMP JUMPDEST PUSH2 0xCD8 JUMP JUMPDEST STOP JUMPDEST CALLVALUE DUP1 ISZERO PUSH2 0x12F JUMPI PUSH1 0x0 DUP1 REVERT JUMPDEST POP PUSH2 0x138 PUSH2 0x12B1 JUMP JUMPDEST PUSH1 0x40 MLOAD PUSH2 0x145 SWAP2 SWAP1 PUSH2 0x1BFD JUMP JUMPDEST PUSH1 0x40 MLOAD DUP1 SWAP2 SUB SWAP1 RETURN JUMPDEST CALLVALUE DUP1 ISZERO PUSH2 0x15A JUMPI PUSH1 0x0 DUP1 REVERT JUMPDEST POP PUSH2 0x163 PUSH2 0x12D7 JUMP JUMPDEST STOP JUMPDEST CALLVALUE DUP1 ISZERO PUSH2 0x171 JUMPI PUSH1 0x0 DUP1 REVERT JUMPDEST POP PUSH2 0x17A PUSH2 0x12EB JUMP JUMPDEST PUSH1 0x40 MLOAD PUSH2 0x187 SWAP2 SWAP1 PUSH2 0x1BFD JUMP JUMPDEST PUSH1 0x40 MLOAD DUP1 SWAP2 SUB SWAP1 RETURN JUMPDEST CALLVALUE DUP1 ISZERO PUSH2 0x19C JUMPI PUSH1 0x0 DUP1 REVERT JUMPDEST POP PUSH2 0x1B7 PUSH1 0x4 DUP1 CALLDATASIZE SUB DUP2 ADD SWAP1 PUSH2 0x1B2 SWAP2 SWAP1 PUSH2 0x1BC1 JUMP JUMPDEST PUSH2 0x1315 JUMP JUMPDEST STOP JUMPDEST CALLVALUE DUP1 ISZERO PUSH2 0x1C5 JUMPI PUSH1 0x0 DUP1 REVERT JUMPDEST POP PUSH2 0x1E0 PUSH1 0x4 DUP1 CALLDATASIZE SUB DUP2 ADD SWAP1 PUSH2 0x1DB SWAP2 SWAP1 PUSH2 0x1BC1 JUMP JUMPDEST PUSH2 0x1608 JUMP JUMPDEST PUSH1 0x40 MLOAD PUSH2 0x1F2 SWAP7 SWAP6 SWAP5 SWAP4 SWAP3 SWAP2 SWAP1 PUSH2 0x1C33 JUMP JUMPDEST PUSH1 0x40 MLOAD DUP1 SWAP2 SUB SWAP1 RETURN JUMPDEST CALLVALUE DUP1 ISZERO PUSH2 0x207 JUMPI PUSH1 0x0 DUP1 REVERT JUMPDEST POP PUSH2 0x210 PUSH2 0x16BE JUMP JUMPDEST PUSH1 0x40 MLOAD PUSH2 0x21D SWAP2 SWAP1 PUSH2 0x1B53 JUMP JUMPDEST PUSH1 0x40 MLOAD DUP1 SWAP2 SUB SWAP1 RETURN JUMPDEST CALLVALUE DUP1 ISZERO PUSH2 0x232 JUMPI PUSH1 0x0 DUP1 REVERT JUMPDEST POP PUSH2 0x24D PUSH1 0x4 DUP1 CALLDATASIZE SUB DUP2 ADD SWAP1 PUSH2 0x248 SWAP2 SWAP1 PUSH2 0x1C94 JUMP JUMPDEST PUSH2 0x16C4 JUMP JUMPDEST STOP JUMPDEST CALLVALUE DUP1 ISZERO PUSH2 0x25B JUMPI PUSH1 0x0 DUP1 REVERT JUMPDEST POP PUSH2 0x276 PUSH1 0x4 DUP1 CALLDATASIZE SUB DUP2 ADD SWAP1 PUSH2 0x271 SWAP2 SWAP1 PUSH2 0x1C94 JUMP JUMPDEST PUSH2 0x174A JUMP JUMPDEST STOP JUMPDEST PUSH1 0x0 PUSH2 0x28E PUSH8 0x5A60AC9C33B510D1 PUSH1 0xC0 SHL PUSH2 0x18A5 JUMP JUMPDEST PUSH2 0x2A2 PUSH8 0xAF0374F11A516CDF PUSH1 0xC0 SHL PUSH2 0x18A5 JUMP JUMPDEST PUSH1 0x40 MLOAD DUP1 PUSH1 0xC0 ADD PUSH1 0x40 MSTORE DUP1 CALLER PUSH20 0xFFFFFFFFFFFFFFFFFFFFFFFFFFFFFFFFFFFFFFFF AND DUP2 MSTORE PUSH1 0x20 ADD DUP6 PUSH20 0xFFFFFFFFFFFFFFFFFFFFFFFFFFFFFFFFFFFFFFFF AND DUP2 MSTORE PUSH1 0x20 ADD DUP5 DUP2 MSTORE PUSH1 0x20 ADD DUP4 PUSH20 0xFFFFFFFFFFFFFFFFFFFFFFFFFFFFFFFFFFFFFFFF AND DUP2 MSTORE PUSH1 0x20 ADD PUSH1 0x0 ISZERO ISZERO DUP2 MSTORE PUSH1 0x20 ADD PUSH1 0x0 ISZERO ISZERO DUP2 MSTORE POP PUSH1 0x3 PUSH1 0x0 PUSH1 0x4 SLOAD DUP2 MSTORE PUSH1 0x20 ADD SWAP1 DUP2 MSTORE PUSH1 0x20 ADD PUSH1 0x0 KECCAK256 PUSH1 0x0 DUP3 ADD MLOAD DUP2 PUSH1 0x0 ADD PUSH1 0x0 PUSH2 0x100 EXP DUP2 SLOAD DUP2 PUSH20 0xFFFFFFFFFFFFFFFFFFFFFFFFFFFFFFFFFFFFFFFF MUL NOT AND SWAP1 DUP4 PUSH20 0xFFFFFFFFFFFFFFFFFFFFFFFFFFFFFFFFFFFFFFFF AND MUL OR SWAP1 SSTORE POP PUSH1 0x20 DUP3 ADD MLOAD DUP2 PUSH1 0x1 ADD PUSH1 0x0 PUSH2 0x100 EXP DUP2 SLOAD DUP2 PUSH20 0xFFFFFFFFFFFFFFFFFFFFFFFFFFFFFFFFFFFFFFFF MUL NOT AND SWAP1 DUP4 PUSH20 0xFFFFFFFFFFFFFFFFFFFFFFFFFFFFFFFFFFFFFFFF AND MUL OR SWAP1 SSTORE POP PUSH1 0x40 DUP3 ADD MLOAD DUP2 PUSH1 0x2 ADD SSTORE PUSH1 0x60 DUP3 ADD MLOAD DUP2 PUSH1 0x3 ADD PUSH1 0x0 PUSH2 0x100 EXP DUP2 SLOAD DUP2 PUSH20 0xFFFFFFFFFFFFFFFFFFFFFFFFFFFFFFFFFFFFFFFF MUL NOT AND SWAP1 DUP4 PUSH20 0xFFFFFFFFFFFFFFFFFFFFFFFFFFFFFFFFFFFFFFFF AND MUL OR SWAP1 SSTORE POP PUSH1 0x80 DUP3 ADD MLOAD DUP2 PUSH1 0x3 ADD PUSH1 0x14 PUSH2 0x100 EXP DUP2 SLOAD DUP2 PUSH1 0xFF MUL NOT AND SWAP1 DUP4 ISZERO ISZERO MUL OR SWAP1 SSTORE POP PUSH1 0xA0 DUP3 ADD MLOAD DUP2 PUSH1 0x3 ADD PUSH1 0x15 PUSH2 0x100 EXP DUP2 SLOAD DUP2 PUSH1 0xFF MUL NOT AND SWAP1 DUP4 ISZERO ISZERO MUL OR SWAP1 SSTORE POP SWAP1 POP POP PUSH2 0x462 PUSH8 0x151A3DF9E4A1C701 PUSH1 0xC0 SHL PUSH2 0x18A5 JUMP JUMPDEST PUSH2 0x476 PUSH8 0xF619DD95FBB6B83A PUSH1 0xC0 SHL PUSH2 0x18A5 JUMP JUMPDEST DUP4 PUSH20 0xFFFFFFFFFFFFFFFFFFFFFFFFFFFFFFFFFFFFFFFF AND CALLER PUSH20 0xFFFFFFFFFFFFFFFFFFFFFFFFFFFFFFFFFFFFFFFF AND PUSH1 0x4 SLOAD PUSH32 0xC73C79E096F50541645465910102237C855A5979F3E3A5B95EC0323A86E2773 DUP7 DUP7 PUSH1 0x40 MLOAD PUSH2 0x4D8 SWAP3 SWAP2 SWAP1 PUSH2 0x1CC1 JUMP JUMPDEST PUSH1 0x40 MLOAD DUP1 SWAP2 SUB SWAP1 LOG4 PUSH2 0x4F4 PUSH8 0xE30B681A5FED789B PUSH1 0xC0 SHL PUSH2 0x18A5 JUMP JUMPDEST PUSH2 0x508 PUSH8 0x9469C96CCE6BB6A8 PUSH1 0xC0 SHL PUSH2 0x18A5 JUMP JUMPDEST PUSH1 0x4 PUSH1 0x0 DUP2 SLOAD DUP1 SWAP3 SWAP2 SWAP1 PUSH2 0x51B SWAP1 PUSH2 0x1D19 JUMP JUMPDEST SWAP2 SWAP1 POP SSTORE SWAP1 POP SWAP4 SWAP3 POP POP POP JUMP JUMPDEST PUSH2 0x53C PUSH8 0x9C434777CA0C0713 PUSH1 0xC0 SHL PUSH2 0x18A5 JUMP JUMPDEST PUSH2 0x550 PUSH8 0x562999FF45BF8BC9 PUSH1 0xC0 SHL PUSH2 0x18A5 JUMP JUMPDEST PUSH2 0x564 PUSH8 0x43868196F16973D PUSH1 0xC0 SHL PUSH2 0x18A5 JUMP JUMPDEST PUSH2 0x578 PUSH8 0x577D67EEBBF4CC5F PUSH1 0xC0 SHL PUSH2 0x18A5 JUMP JUMPDEST PUSH2 0x58C PUSH8 0x8E0A835D1C438151 PUSH1 0xC0 SHL PUSH2 0x18A5 JUMP JUMPDEST PUSH1 0x2 PUSH1 0x0 SWAP1 SLOAD SWAP1 PUSH2 0x100 EXP SWAP1 DIV PUSH20 0xFFFFFFFFFFFFFFFFFFFFFFFFFFFFFFFFFFFFFFFF AND PUSH20 0xFFFFFFFFFFFFFFFFFFFFFFFFFFFFFFFFFFFFFFFF AND CALLER PUSH20 0xFFFFFFFFFFFFFFFFFFFFFFFFFFFFFFFFFFFFFFFF AND EQ PUSH2 0x61C JUMPI PUSH1 0x40 MLOAD PUSH32 0x8C379A000000000000000000000000000000000000000000000000000000000 DUP2 MSTORE PUSH1 0x4 ADD PUSH2 0x613 SWAP1 PUSH2 0x1DBE JUMP JUMPDEST PUSH1 0x40 MLOAD DUP1 SWAP2 SUB SWAP1 REVERT JUMPDEST PUSH2 0x630 PUSH8 0x1530B3B6C0AE7437 PUSH1 0xC0 SHL PUSH2 0x18A5 JUMP JUMPDEST PUSH2 0x644 PUSH8 0x5F8FFAC62D2F1689 PUSH1 0xC0 SHL PUSH2 0x18A5 JUMP JUMPDEST PUSH2 0x658 PUSH8 0x2D41F13F32A23642 PUSH1 0xC0 SHL PUSH2 0x18A5 JUMP JUMPDEST PUSH2 0x66C PUSH8 0xD454F925BD4C0DFA PUSH1 0xC0 SHL PUSH2 0x18A5 JUMP JUMPDEST PUSH2 0x680 PUSH8 0x1082004AC8B24B87 PUSH1 0xC0 SHL PUSH2 0x18A5 JUMP JUMPDEST PUSH2 0x694 PUSH8 0x3AB6AC940B87D345 PUSH1 0xC0 SHL PUSH2 0x18A5 JUMP JUMPDEST PUSH1 0x0 PUSH1 0x3 PUSH1 0x0 DUP6 DUP2 MSTORE PUSH1 0x20 ADD SWAP1 DUP2 MSTORE PUSH1 0x20 ADD PUSH1 0x0 KECCAK256 SWAP1 POP PUSH2 0x6BF PUSH8 0x5583216F89DC9A79 PUSH1 0xC0 SHL PUSH2 0x18A5 JUMP JUMPDEST PUSH2 0x6D3 PUSH8 0x65B5D700D9C30B75 PUSH1 0xC0 SHL PUSH2 0x18A5 JUMP JUMPDEST PUSH2 0x6E7 PUSH8 0x7820CEB7EC166EE0 PUSH1 0xC0 SHL PUSH2 0x18A5 JUMP JUMPDEST DUP1 PUSH1 0x3 ADD PUSH1 0x14 SWAP1 SLOAD SWAP1 PUSH2 0x100 EXP SWAP1 DIV PUSH1 0xFF AND PUSH2 0x738 JUMPI PUSH1 0x40 MLOAD PUSH32 0x8C379A000000000000000000000000000000000000000000000000000000000 DUP2 MSTORE PUSH1 0x4 ADD PUSH2 0x72F SWAP1 PUSH2 0x1E2A JUMP JUMPDEST PUSH1 0x40 MLOAD DUP1 SWAP2 SUB SWAP1 REVERT JUMPDEST PUSH2 0x74C PUSH8 0xB53ED74B633500BE PUSH1 0xC0 SHL PUSH2 0x18A5 JUMP JUMPDEST PUSH2 0x760 PUSH8 0x8FE07AC850C52145 PUSH1 0xC0 SHL PUSH2 0x18A5 JUMP JUMPDEST PUSH2 0x774 PUSH8 0xCACAD01D33CB4341 PUSH1 0xC0 SHL PUSH2 0x18A5 JUMP JUMPDEST PUSH2 0x788 PUSH8 0xAAA58AAA34CA92D PUSH1 0xC0 SHL PUSH2 0x18A5 JUMP JUMPDEST DUP1 PUSH1 0x2 ADD SLOAD DUP3 DUP5 PUSH2 0x799 SWAP2 SWAP1 PUSH2 0x1E4A JUMP JUMPDEST EQ PUSH2 0x7D9 JUMPI PUSH1 0x40 MLOAD PUSH32 0x8C379A000000000000000000000000000000000000000000000000000000000 DUP2 MSTORE PUSH1 0x4 ADD PUSH2 0x7D0 SWAP1 PUSH2 0x1ECA JUMP JUMPDEST PUSH1 0x40 MLOAD DUP1 SWAP2 SUB SWAP1 REVERT JUMPDEST PUSH2 0x7ED PUSH8 0xB503C08F75D5F019 PUSH1 0xC0 SHL PUSH2 0x18A5 JUMP JUMPDEST PUSH2 0x801 PUSH8 0xC8C1CB76FF7069C0 PUSH1 0xC0 SHL PUSH2 0x18A5 JUMP JUMPDEST PUSH2 0x815 PUSH8 0xFBB81451C6AFD205 PUSH1 0xC0 SHL PUSH2 0x18A5 JUMP JUMPDEST PUSH1 0x0 PUSH20 0xFFFFFFFFFFFFFFFFFFFFFFFFFFFFFFFFFFFFFFFF AND DUP2 PUSH1 0x3 ADD PUSH1 0x0 SWAP1 SLOAD SWAP1 PUSH2 0x100 EXP SWAP1 DIV PUSH20 0xFFFFFFFFFFFFFFFFFFFFFFFFFFFFFFFFFFFFFFFF AND PUSH20 0xFFFFFFFFFFFFFFFFFFFFFFFFFFFFFFFFFFFFFFFF AND SUB PUSH2 0x9AC JUMPI PUSH2 0x881 PUSH8 0x53DD22082FF27364 PUSH1 0xC0 SHL PUSH2 0x18A5 JUMP JUMPDEST PUSH2 0x895 PUSH8 0xBDFD699DA53DD027 PUSH1 0xC0 SHL PUSH2 0x18A5 JUMP JUMPDEST PUSH2 0x8A9 PUSH8 0x1B1B2A9B7ABBCAC9 PUSH1 0xC0 SHL PUSH2 0x18A5 JUMP JUMPDEST DUP1 PUSH1 0x0 ADD PUSH1 0x0 SWAP1 SLOAD SWAP1 PUSH2 0x100 EXP SWAP1 DIV PUSH20 0xFFFFFFFFFFFFFFFFFFFFFFFFFFFFFFFFFFFFFFFF AND PUSH20 0xFFFFFFFFFFFFFFFFFFFFFFFFFFFFFFFFFFFFFFFF AND PUSH2 0x8FC DUP5 SWAP1 DUP2 ISZERO MUL SWAP1 PUSH1 0x40 MLOAD PUSH1 0x0 PUSH1 0x40 MLOAD DUP1 DUP4 SUB DUP2 DUP6 DUP9 DUP9 CALL SWAP4 POP POP POP POP ISZERO DUP1 ISZERO PUSH2 0x913 JUMPI RETURNDATASIZE PUSH1 0x0 DUP1 RETURNDATACOPY RETURNDATASIZE PUSH1 0x0 REVERT JUMPDEST POP PUSH2 0x928 PUSH8 0x94FF6F4B34DCD616 PUSH1 0xC0 SHL PUSH2 0x18A5 JUMP JUMPDEST PUSH2 0x93C PUSH8 0xEF1DD3EF4669EC4A PUSH1 0xC0 SHL PUSH2 0x18A5 JUMP JUMPDEST DUP1 PUSH1 0x1 ADD PUSH1 0x0 SWAP1 SLOAD SWAP1 PUSH2 0x100 EXP SWAP1 DIV PUSH20 0xFFFFFFFFFFFFFFFFFFFFFFFFFFFFFFFFFFFFFFFF AND PUSH20 0xFFFFFFFFFFFFFFFFFFFFFFFFFFFFFFFFFFFFFFFF AND PUSH2 0x8FC DUP4 SWAP1 DUP2 ISZERO MUL SWAP1 PUSH1 0x40 MLOAD PUSH1 0x0 PUSH1 0x40 MLOAD DUP1 DUP4 SUB DUP2 DUP6 DUP9 DUP9 CALL SWAP4 POP POP POP POP ISZERO DUP1 ISZERO PUSH2 0x9A6 JUMPI RETURNDATASIZE PUSH1 0x0 DUP1 RETURNDATACOPY RETURNDATASIZE PUSH1 0x0 REVERT JUMPDEST POP PUSH2 0xC3F JUMP JUMPDEST PUSH2 0x9C0 PUSH8 0x68EB8149CAB2F226 PUSH1 0xC0 SHL PUSH2 0x18A5 JUMP JUMPDEST PUSH2 0x9D4 PUSH8 0x78D6A88EABB09A5F PUSH1 0xC0 SHL PUSH2 0x18A5 JUMP JUMPDEST PUSH2 0x9E8 PUSH8 0x81823149C3AE33DA PUSH1 0xC0 SHL PUSH2 0x18A5 JUMP JUMPDEST PUSH1 0x0 DUP2 PUSH1 0x3 ADD PUSH1 0x0 SWAP1 SLOAD SWAP1 PUSH2 0x100 EXP SWAP1 DIV PUSH20 0xFFFFFFFFFFFFFFFFFFFFFFFFFFFFFFFFFFFFFFFF AND SWAP1 POP PUSH2 0xA25 PUSH8 0xEB84ADE1D72386F0 PUSH1 0xC0 SHL PUSH2 0x18A5 JUMP JUMPDEST PUSH2 0xA39 PUSH8 0x521FA937BBBF5D0F PUSH1 0xC0 SHL PUSH2 0x18A5 JUMP JUMPDEST PUSH1 0x0 DUP5 GT ISZERO PUSH2 0xB12 JUMPI PUSH2 0xA56 PUSH8 0x8B38E3F0C7033BC9 PUSH1 0xC0 SHL PUSH2 0x18A5 JUMP JUMPDEST PUSH2 0xA6A PUSH8 0x3D48F7CCCCE03248 PUSH1 0xC0 SHL PUSH2 0x18A5 JUMP JUMPDEST DUP1 PUSH20 0xFFFFFFFFFFFFFFFFFFFFFFFFFFFFFFFFFFFFFFFF AND PUSH4 0xA9059CBB DUP4 PUSH1 0x0 ADD PUSH1 0x0 SWAP1 SLOAD SWAP1 PUSH2 0x100 EXP SWAP1 DIV PUSH20 0xFFFFFFFFFFFFFFFFFFFFFFFFFFFFFFFFFFFFFFFF AND DUP7 PUSH1 0x40 MLOAD DUP4 PUSH4 0xFFFFFFFF AND PUSH1 0xE0 SHL DUP2 MSTORE PUSH1 0x4 ADD PUSH2 0xAC9 SWAP3 SWAP2 SWAP1 PUSH2 0x1EEA JUMP JUMPDEST PUSH1 0x20 PUSH1 0x40 MLOAD DUP1 DUP4 SUB DUP2 PUSH1 0x0 DUP8 GAS CALL ISZERO DUP1 ISZERO PUSH2 0xAE8 JUMPI RETURNDATASIZE PUSH1 0x0 DUP1 RETURNDATACOPY RETURNDATASIZE PUSH1 0x0 REVERT JUMPDEST POP POP POP POP PUSH1 0x40 MLOAD RETURNDATASIZE PUSH1 0x1F NOT PUSH1 0x1F DUP3 ADD AND DUP3 ADD DUP1 PUSH1 0x40 MSTORE POP DUP2 ADD SWAP1 PUSH2 0xB0C SWAP2 SWAP1 PUSH2 0x1F3F JUMP JUMPDEST POP PUSH2 0xB27 JUMP JUMPDEST PUSH2 0xB26 PUSH8 0xB10E5E54131A8FD7 PUSH1 0xC0 SHL PUSH2 0x18A5 JUMP JUMPDEST JUMPDEST PUSH2 0xB3B PUSH8 0xE83E73107463C37B PUSH1 0xC0 SHL PUSH2 0x18A5 JUMP JUMPDEST PUSH2 0xB4F PUSH8 0xCC41D8100F8AFAC5 PUSH1 0xC0 SHL PUSH2 0x18A5 JUMP JUMPDEST PUSH1 0x0 DUP4 GT ISZERO PUSH2 0xC28 JUMPI PUSH2 0xB6C PUSH8 0x84B5B4F8E83F937B PUSH1 0xC0 SHL PUSH2 0x18A5 JUMP JUMPDEST PUSH2 0xB80 PUSH8 0x8A6A3A5BD84C88B7 PUSH1 0xC0 SHL PUSH2 0x18A5 JUMP JUMPDEST DUP1 PUSH20 0xFFFFFFFFFFFFFFFFFFFFFFFFFFFFFFFFFFFFFFFF AND PUSH4 0xA9059CBB DUP4 PUSH1 0x1 ADD PUSH1 0x0 SWAP1 SLOAD SWAP1 PUSH2 0x100 EXP SWAP1 DIV PUSH20 0xFFFFFFFFFFFFFFFFFFFFFFFFFFFFFFFFFFFFFFFF AND DUP6 PUSH1 0x40 MLOAD DUP4 PUSH4 0xFFFFFFFF AND PUSH1 0xE0 SHL DUP2 MSTORE PUSH1 0x4 ADD PUSH2 0xBDF SWAP3 SWAP2 SWAP1 PUSH2 0x1EEA JUMP JUMPDEST PUSH1 0x20 PUSH1 0x40 MLOAD DUP1 DUP4 SUB DUP2 PUSH1 0x0 DUP8 GAS CALL ISZERO DUP1 ISZERO PUSH2 0xBFE JUMPI RETURNDATASIZE PUSH1 0x0 DUP1 RETURNDATACOPY RETURNDATASIZE PUSH1 0x0 REVERT JUMPDEST POP POP POP POP PUSH1 0x40 MLOAD RETURNDATASIZE PUSH1 0x1F NOT PUSH1 0x1F DUP3 ADD AND DUP3 ADD DUP1 PUSH1 0x40 MSTORE POP DUP2 ADD SWAP1 PUSH2 0xC22 SWAP2 SWAP1 PUSH2 0x1F3F JUMP JUMPDEST POP PUSH2 0xC3D JUMP JUMPDEST PUSH2 0xC3C PUSH8 0x8B1C6E695723D074 PUSH1 0xC0 SHL PUSH2 0x18A5 JUMP JUMPDEST JUMPDEST POP JUMPDEST PUSH2 0xC53 PUSH8 0x3DC23AA29A307F60 PUSH1 0xC0 SHL PUSH2 0x18A5 JUMP JUMPDEST PUSH1 0x1 DUP2 PUSH1 0x3 ADD PUSH1 0x15 PUSH2 0x100 EXP DUP2 SLOAD DUP2 PUSH1 0xFF MUL NOT AND SWAP1 DUP4 ISZERO ISZERO MUL OR SWAP1 SSTORE POP PUSH2 0xC84 PUSH8 0x940327BC952F5086 PUSH1 0xC0 SHL PUSH2 0x18A5 JUMP JUMPDEST PUSH2 0xC98 PUSH8 0xEA2E1646E4A93F48 PUSH1 0xC0 SHL PUSH2 0x18A5 JUMP JUMPDEST DUP4 PUSH32 0x959DC01840AA516BF9407CFFA45326C7B6821C48FEFF7B91EB0C743C8F460FD6 DUP5 DUP5 PUSH1 0x40 MLOAD PUSH2 0xCCA SWAP3 SWAP2 SWAP1 PUSH2 0x1F6C JUMP JUMPDEST PUSH1 0x40 MLOAD DUP1 SWAP2 SUB SWAP1 LOG2 POP POP POP POP JUMP JUMPDEST PUSH2 0xCEC PUSH8 0xE16820EA88C6A036 PUSH1 0xC0 SHL PUSH2 0x18A5 JUMP JUMPDEST PUSH2 0xCF4 PUSH2 0x18A8 JUMP JUMPDEST PUSH2 0xD08 PUSH8 0xEEC26363789B78FB PUSH1 0xC0 SHL PUSH2 0x18A5 JUMP JUMPDEST PUSH2 0xD1C PUSH8 0xF8EBDAEDBA067ED0 PUSH1 0xC0 SHL PUSH2 0x18A5 JUMP JUMPDEST PUSH2 0xD30 PUSH8 0xBDE53C9EACD22ED PUSH1 0xC0 SHL PUSH2 0x18A5 JUMP JUMPDEST PUSH2 0xD44 PUSH8 0x814E89688377755B PUSH1 0xC0 SHL PUSH2 0x18A5 JUMP JUMPDEST PUSH1 0x0 PUSH1 0x3 PUSH1 0x0 DUP4 DUP2 MSTORE PUSH1 0x20 ADD SWAP1 DUP2 MSTORE PUSH1 0x20 ADD PUSH1 0x0 KECCAK256 SWAP1 POP PUSH2 0xD6F PUSH8 0xFCE8970DDD99A00A PUSH1 0xC0 SHL PUSH2 0x18A5 JUMP JUMPDEST PUSH2 0xD83 PUSH8 0x7F0675DDD7F1DE90 PUSH1 0xC0 SHL PUSH2 0x18A5 JUMP JUMPDEST PUSH2 0xD97 PUSH8 0xB14E782B255E7F6E PUSH1 0xC0 SHL PUSH2 0x18A5 JUMP JUMPDEST DUP1 PUSH1 0x1 ADD PUSH1 0x0 SWAP1 SLOAD SWAP1 PUSH2 0x100 EXP SWAP1 DIV PUSH20 0xFFFFFFFFFFFFFFFFFFFFFFFFFFFFFFFFFFFFFFFF AND PUSH20 0xFFFFFFFFFFFFFFFFFFFFFFFFFFFFFFFFFFFFFFFF AND CALLER PUSH20 0xFFFFFFFFFFFFFFFFFFFFFFFFFFFFFFFFFFFFFFFF AND EQ PUSH2 0xE29 JUMPI PUSH1 0x40 MLOAD PUSH32 0x8C379A000000000000000000000000000000000000000000000000000000000 DUP2 MSTORE PUSH1 0x4 ADD PUSH2 0xE20 SWAP1 PUSH2 0x1FE1 JUMP JUMPDEST PUSH1 0x40 MLOAD DUP1 SWAP2 SUB SWAP1 REVERT JUMPDEST PUSH2 0xE3D PUSH8 0x78B44A5A9E7F237A PUSH1 0xC0 SHL PUSH2 0x18A5 JUMP JUMPDEST PUSH2 0xE51 PUSH8 0x6974D2B3693DFA1A PUSH1 0xC0 SHL PUSH2 0x18A5 JUMP JUMPDEST PUSH2 0xE65 PUSH8 0x71332ECBDB8C0CEF PUSH1 0xC0 SHL PUSH2 0x18A5 JUMP JUMPDEST PUSH2 0xE79 PUSH8 0xA1E7A87B55CA4AD1 PUSH1 0xC0 SHL PUSH2 0x18A5 JUMP JUMPDEST DUP1 PUSH1 0x3 ADD PUSH1 0x14 SWAP1 SLOAD SWAP1 PUSH2 0x100 EXP SWAP1 DIV PUSH1 0xFF AND ISZERO PUSH2 0xECB JUMPI PUSH1 0x40 MLOAD PUSH32 0x8C379A000000000000000000000000000000000000000000000000000000000 DUP2 MSTORE PUSH1 0x4 ADD PUSH2 0xEC2 SWAP1 PUSH2 0x204D JUMP JUMPDEST PUSH1 0x40 MLOAD DUP1 SWAP2 SUB SWAP1 REVERT JUMPDEST PUSH2 0xEDF PUSH8 0xE8C263AC70264A49 PUSH1 0xC0 SHL PUSH2 0x18A5 JUMP JUMPDEST PUSH2 0xEF3 PUSH8 0x20223B70A5BE9A11 PUSH1 0xC0 SHL PUSH2 0x18A5 JUMP JUMPDEST PUSH2 0xF07 PUSH8 0xB510882DEAD0F87 PUSH1 0xC0 SHL PUSH2 0x18A5 JUMP JUMPDEST PUSH2 0xF1B PUSH8 0x30961AD4479D1847 PUSH1 0xC0 SHL PUSH2 0x18A5 JUMP JUMPDEST DUP1 PUSH1 0x3 ADD PUSH1 0x15 SWAP1 SLOAD SWAP1 PUSH2 0x100 EXP SWAP1 DIV PUSH1 0xFF AND ISZERO PUSH2 0xF6D JUMPI PUSH1 0x40 MLOAD PUSH32 0x8C379A000000000000000000000000000000000000000000000000000000000 DUP2 MSTORE PUSH1 0x4 ADD PUSH2 0xF64 SWAP1 PUSH2 0x20B9 JUMP JUMPDEST PUSH1 0x40 MLOAD DUP1 SWAP2 SUB SWAP1 REVERT JUMPDEST PUSH2 0xF81 PUSH8 0x993F61310E46D8B3 PUSH1 0xC0 SHL PUSH2 0x18A5 JUMP JUMPDEST PUSH2 0xF95 PUSH8 0xCE5268A2E9CDA572 PUSH1 0xC0 SHL PUSH2 0x18A5 JUMP JUMPDEST PUSH2 0xFA9 PUSH8 0xFEEA183171CCE476 PUSH1 0xC0 SHL PUSH2 0x18A5 JUMP JUMPDEST PUSH1 0x0 PUSH20 0xFFFFFFFFFFFFFFFFFFFFFFFFFFFFFFFFFFFFFFFF AND DUP2 PUSH1 0x3 ADD PUSH1 0x0 SWAP1 SLOAD SWAP1 PUSH2 0x100 EXP SWAP1 DIV PUSH20 0xFFFFFFFFFFFFFFFFFFFFFFFFFFFFFFFFFFFFFFFF AND PUSH20 0xFFFFFFFFFFFFFFFFFFFFFFFFFFFFFFFFFFFFFFFF AND SUB PUSH2 0x10B0 JUMPI PUSH2 0x1015 PUSH8 0xA8FC352EF111A584 PUSH1 0xC0 SHL PUSH2 0x18A5 JUMP JUMPDEST PUSH2 0x1029 PUSH8 0x697F77D0F33CF3D2 PUSH1 0xC0 SHL PUSH2 0x18A5 JUMP JUMPDEST PUSH2 0x103D PUSH8 0x9E091DAC4C1ACF7 PUSH1 0xC0 SHL PUSH2 0x18A5 JUMP JUMPDEST PUSH2 0x1051 PUSH8 0x42B3564A3E5343EF PUSH1 0xC0 SHL PUSH2 0x18A5 JUMP JUMPDEST DUP1 PUSH1 0x2 ADD SLOAD CALLVALUE EQ PUSH2 0x1097 JUMPI PUSH1 0x40 MLOAD PUSH32 0x8C379A000000000000000000000000000000000000000000000000000000000 DUP2 MSTORE PUSH1 0x4 ADD PUSH2 0x108E SWAP1 PUSH2 0x2125 JUMP JUMPDEST PUSH1 0x40 MLOAD DUP1 SWAP2 SUB SWAP1 REVERT JUMPDEST PUSH2 0x10AB PUSH8 0xFD9B03540CA896B0 PUSH1 0xC0 SHL PUSH2 0x18A5 JUMP JUMPDEST PUSH2 0x122A JUMP JUMPDEST PUSH2 0x10C4 PUSH8 0x33D8E9F1EEBE892A PUSH1 0xC0 SHL PUSH2 0x18A5 JUMP JUMPDEST PUSH2 0x10D8 PUSH8 0x74431536692FB6E6 PUSH1 0xC0 SHL PUSH2 0x18A5 JUMP JUMPDEST PUSH2 0x10EC PUSH8 0xB0A91CDC8C1B6AE1 PUSH1 0xC0 SHL PUSH2 0x18A5 JUMP JUMPDEST PUSH1 0x0 DUP2 PUSH1 0x3 ADD PUSH1 0x0 SWAP1 SLOAD SWAP1 PUSH2 0x100 EXP SWAP1 DIV PUSH20 0xFFFFFFFFFFFFFFFFFFFFFFFFFFFFFFFFFFFFFFFF AND SWAP1 POP PUSH2 0x1129 PUSH8 0x963AAFC978A8AED0 PUSH1 0xC0 SHL PUSH2 0x18A5 JUMP JUMPDEST PUSH2 0x113D PUSH8 0xA67240314AACE6F4 PUSH1 0xC0 SHL PUSH2 0x18A5 JUMP JUMPDEST PUSH2 0x1151 PUSH8 0xF120B4CADD5ACAC0 PUSH1 0xC0 SHL PUSH2 0x18A5 JUMP JUMPDEST DUP1 PUSH20 0xFFFFFFFFFFFFFFFFFFFFFFFFFFFFFFFFFFFFFFFF AND PUSH4 0x23B872DD CALLER ADDRESS DUP6 PUSH1 0x2 ADD SLOAD PUSH1 0x40 MLOAD DUP5 PUSH4 0xFFFFFFFF AND PUSH1 0xE0 SHL DUP2 MSTORE PUSH1 0x4 ADD PUSH2 0x1192 SWAP4 SWAP3 SWAP2 SWAP1 PUSH2 0x2145 JUMP JUMPDEST PUSH1 0x20 PUSH1 0x40 MLOAD DUP1 DUP4 SUB DUP2 PUSH1 0x0 DUP8 GAS CALL ISZERO DUP1 ISZERO PUSH2 0x11B1 JUMPI RETURNDATASIZE PUSH1 0x0 DUP1 RETURNDATACOPY RETURNDATASIZE PUSH1 0x0 REVERT JUMPDEST POP POP POP POP PUSH1 0x40 MLOAD RETURNDATASIZE PUSH1 0x1F NOT PUSH1 0x1F DUP3 ADD AND DUP3 ADD DUP1 PUSH1 0x40 MSTORE POP DUP2 ADD SWAP1 PUSH2 0x11D5 SWAP2 SWAP1 PUSH2 0x1F3F JUMP JUMPDEST PUSH2 0x1214 JUMPI PUSH1 0x40 MLOAD PUSH32 0x8C379A000000000000000000000000000000000000000000000000000000000 DUP2 MSTORE PUSH1 0x4 ADD PUSH2 0x120B SWAP1 PUSH2 0x21C8 JUMP JUMPDEST PUSH1 0x40 MLOAD DUP1 SWAP2 SUB SWAP1 REVERT JUMPDEST PUSH2 0x1228 PUSH8 0xE1EDB94139C833D4 PUSH1 0xC0 SHL PUSH2 0x18A5 JUMP JUMPDEST POP JUMPDEST PUSH2 0x123E PUSH8 0x7F47E71081F1B5F4 PUSH1 0xC0 SHL PUSH2 0x18A5 JUMP JUMPDEST PUSH2 0x1252 PUSH8 0x29052EDB0946DEBC PUSH1 0xC0 SHL PUSH2 0x18A5 JUMP JUMPDEST CALLER PUSH20 0xFFFFFFFFFFFFFFFFFFFFFFFFFFFFFFFFFFFFFFFF AND DUP3 PUSH32 0x71284872BB4C088A81295DFF2513729BABBCCFEDA38A8D824BB1A73BCAAB494E DUP4 PUSH1 0x2 ADD SLOAD PUSH1 0x40 MLOAD PUSH2 0x129D SWAP2 SWAP1 PUSH2 0x1B53 JUMP JUMPDEST PUSH1 0x40 MLOAD DUP1 SWAP2 SUB SWAP1 LOG3 POP PUSH2 0x12AE PUSH2 0x18EE JUMP JUMPDEST POP JUMP JUMPDEST PUSH1 0x2 PUSH1 0x0 SWAP1 SLOAD SWAP1 PUSH2 0x100 EXP SWAP1 DIV PUSH20 0xFFFFFFFFFFFFFFFFFFFFFFFFFFFFFFFFFFFFFFFF AND DUP2 JUMP JUMPDEST PUSH2 0x12DF PUSH2 0x18F8 JUMP JUMPDEST PUSH2 0x12E9 PUSH1 0x0 PUSH2 0x197F JUMP JUMPDEST JUMP JUMPDEST PUSH1 0x0 PUSH1 0x1 PUSH1 0x0 SWAP1 SLOAD SWAP1 PUSH2 0x100 EXP SWAP1 DIV PUSH20 0xFFFFFFFFFFFFFFFFFFFFFFFFFFFFFFFFFFFFFFFF AND SWAP1 POP SWAP1 JUMP JUMPDEST PUSH2 0x1329 PUSH8 0xC600AFF2E4A904B PUSH1 0xC0 SHL PUSH2 0x18A5 JUMP JUMPDEST PUSH2 0x133D PUSH8 0x33EF38379F29D98C PUSH1 0xC0 SHL PUSH2 0x18A5 JUMP JUMPDEST PUSH2 0x1351 PUSH8 0x139D1184897318B PUSH1 0xC0 SHL PUSH2 0x18A5 JUMP JUMPDEST PUSH1 0x0 PUSH1 0x3 PUSH1 0x0 DUP4 DUP2 MSTORE PUSH1 0x20 ADD SWAP1 DUP2 MSTORE PUSH1 0x20 ADD PUSH1 0x0 KECCAK256 SWAP1 POP PUSH2 0x137C PUSH8 0x905C10F10716A32E PUSH1 0xC0 SHL PUSH2 0x18A5 JUMP JUMPDEST PUSH2 0x1390 PUSH8 0x49CBDFA8CF65B1DC PUSH1 0xC0 SHL PUSH2 0x18A5 JUMP JUMPDEST PUSH2 0x13A4 PUSH8 0x8A6230BD509E215E PUSH1 0xC0 SHL PUSH2 0x18A5 JUMP JUMPDEST DUP1 PUSH1 0x1 ADD PUSH1 0x0 SWAP1 SLOAD SWAP1 PUSH2 0x100 EXP SWAP1 DIV PUSH20 0xFFFFFFFFFFFFFFFFFFFFFFFFFFFFFFFFFFFFFFFF AND PUSH20 0xFFFFFFFFFFFFFFFFFFFFFFFFFFFFFFFFFFFFFFFF AND CALLER PUSH20 0xFFFFFFFFFFFFFFFFFFFFFFFFFFFFFFFFFFFFFFFF AND EQ DUP1 ISZERO PUSH2 0x1413 JUMPI POP PUSH2 0x1412 PUSH8 0x365C96814285DD9C PUSH1 0xC0 SHL PUSH2 0x1A45 JUMP JUMPDEST JUMPDEST DUP1 PUSH2 0x1489 JUMPI POP DUP1 PUSH1 0x0 ADD PUSH1 0x0 SWAP1 SLOAD SWAP1 PUSH2 0x100 EXP SWAP1 DIV PUSH20 0xFFFFFFFFFFFFFFFFFFFFFFFFFFFFFFFFFFFFFFFF AND PUSH20 0xFFFFFFFFFFFFFFFFFFFFFFFFFFFFFFFFFFFFFFFF AND CALLER PUSH20 0xFFFFFFFFFFFFFFFFFFFFFFFFFFFFFFFFFFFFFFFF AND EQ DUP1 ISZERO PUSH2 0x1488 JUMPI POP PUSH2 0x1487 PUSH8 0x99C05BD081993EDF PUSH1 0xC0 SHL PUSH2 0x1A45 JUMP JUMPDEST JUMPDEST JUMPDEST PUSH2 0x14C8 JUMPI PUSH1 0x40 MLOAD PUSH32 0x8C379A000000000000000000000000000000000000000000000000000000000 DUP2 MSTORE PUSH1 0x4 ADD PUSH2 0x14BF SWAP1 PUSH2 0x225A JUMP JUMPDEST PUSH1 0x40 MLOAD DUP1 SWAP2 SUB SWAP1 REVERT JUMPDEST PUSH2 0x14DC PUSH8 0x9938D644F6568C82 PUSH1 0xC0 SHL PUSH2 0x18A5 JUMP JUMPDEST PUSH2 0x14F0 PUSH8 0xD3960A08CE018DC6 PUSH1 0xC0 SHL PUSH2 0x18A5 JUMP JUMPDEST PUSH2 0x1504 PUSH8 0xDE0B004053FFA700 PUSH1 0xC0 SHL PUSH2 0x18A5 JUMP JUMPDEST PUSH2 0x1518 PUSH8 0x69DE5BCFFDE1290F PUSH1 0xC0 SHL PUSH2 0x18A5 JUMP JUMPDEST DUP1 PUSH1 0x3 ADD PUSH1 0x15 SWAP1 SLOAD SWAP1 PUSH2 0x100 EXP SWAP1 DIV PUSH1 0xFF AND ISZERO PUSH2 0x156A JUMPI PUSH1 0x40 MLOAD PUSH32 0x8C379A000000000000000000000000000000000000000000000000000000000 DUP2 MSTORE PUSH1 0x4 ADD PUSH2 0x1561 SWAP1 PUSH2 0x20B9 JUMP JUMPDEST PUSH1 0x40 MLOAD DUP1 SWAP2 SUB SWAP1 REVERT JUMPDEST PUSH2 0x157E PUSH8 0xCDCD8FA06294208D PUSH1 0xC0 SHL PUSH2 0x18A5 JUMP JUMPDEST PUSH2 0x1592 PUSH8 0x56434335051D6644 PUSH1 0xC0 SHL PUSH2 0x18A5 JUMP JUMPDEST PUSH1 0x1 DUP2 PUSH1 0x3 ADD PUSH1 0x14 PUSH2 0x100 EXP DUP2 SLOAD DUP2 PUSH1 0xFF MUL NOT AND SWAP1 DUP4 ISZERO ISZERO MUL OR SWAP1 SSTORE POP PUSH2 0x15C3 PUSH8 0x6C869A55675FAEA0 PUSH1 0xC0 SHL PUSH2 0x18A5 JUMP JUMPDEST PUSH2 0x15D7 PUSH8 0xF47B22E8493C5370 PUSH1 0xC0 SHL PUSH2 0x18A5 JUMP JUMPDEST DUP2 PUSH32 0x4901F83201C8724EADF084436DB8AA391820BAE6D11F9F78A17EDB6F2EEF3CF PUSH1 0x40 MLOAD PUSH1 0x40 MLOAD DUP1 SWAP2 SUB SWAP1 LOG2 POP POP JUMP JUMPDEST PUSH1 0x3 PUSH1 0x20 MSTORE DUP1 PUSH1 0x0 MSTORE PUSH1 0x40 PUSH1 0x0 KECCAK256 PUSH1 0x0 SWAP2 POP SWAP1 POP DUP1 PUSH1 0x0 ADD PUSH1 0x0 SWAP1 SLOAD SWAP1 PUSH2 0x100 EXP SWAP1 DIV PUSH20 0xFFFFFFFFFFFFFFFFFFFFFFFFFFFFFFFFFFFFFFFF AND SWAP1 DUP1 PUSH1 0x1 ADD PUSH1 0x0 SWAP1 SLOAD SWAP1 PUSH2 0x100 EXP SWAP1 DIV PUSH20 0xFFFFFFFFFFFFFFFFFFFFFFFFFFFFFFFFFFFFFFFF AND SWAP1 DUP1 PUSH1 0x2 ADD SLOAD SWAP1 DUP1 PUSH1 0x3 ADD PUSH1 0x0 SWAP1 SLOAD SWAP1 PUSH2 0x100 EXP SWAP1 DIV PUSH20 0xFFFFFFFFFFFFFFFFFFFFFFFFFFFFFFFFFFFFFFFF AND SWAP1 DUP1 PUSH1 0x3 ADD PUSH1 0x14 SWAP1 SLOAD SWAP1 PUSH2 0x100 EXP SWAP1 DIV PUSH1 0xFF AND SWAP1 DUP1 PUSH1 0x3 ADD PUSH1 0x15 SWAP1 SLOAD SWAP1 PUSH2 0x100 EXP SWAP1 DIV PUSH1 0xFF AND SWAP1 POP DUP7 JUMP JUMPDEST PUSH1 0x4 SLOAD DUP2 JUMP JUMPDEST PUSH2 0x16CC PUSH2 0x18F8 JUMP JUMPDEST PUSH1 0x0 PUSH20 0xFFFFFFFFFFFFFFFFFFFFFFFFFFFFFFFFFFFFFFFF AND DUP2 PUSH20 0xFFFFFFFFFFFFFFFFFFFFFFFFFFFFFFFFFFFFFFFF AND SUB PUSH2 0x173E JUMPI PUSH1 0x0 PUSH1 0x40 MLOAD PUSH32 0x1E4FBDF700000000000000000000000000000000000000000000000000000000 DUP2 MSTORE PUSH1 0x4 ADD PUSH2 0x1735 SWAP2 SWAP1 PUSH2 0x1BFD JUMP JUMPDEST PUSH1 0x40 MLOAD DUP1 SWAP2 SUB SWAP1 REVERT JUMPDEST PUSH2 0x1747 DUP2 PUSH2 0x197F JUMP JUMPDEST POP JUMP JUMPDEST PUSH2 0x175E PUSH8 0xCA1BC3AA6C19A600 PUSH1 0xC0 SHL PUSH2 0x18A5 JUMP JUMPDEST PUSH2 0x1766 PUSH2 0x18F8 JUMP JUMPDEST PUSH2 0x177A PUSH8 0x97C78DA9992CCDCC PUSH1 0xC0 SHL PUSH2 0x18A5 JUMP JUMPDEST PUSH2 0x178E PUSH8 0xAA0748CA06660B95 PUSH1 0xC0 SHL PUSH2 0x18A5 JUMP JUMPDEST PUSH2 0x17A2 PUSH8 0xDAC944CB93C98973 PUSH1 0xC0 SHL PUSH2 0x18A5 JUMP JUMPDEST PUSH2 0x17B6 PUSH8 0x6F56A6047AF1D53E PUSH1 0xC0 SHL PUSH2 0x18A5 JUMP JUMPDEST PUSH2 0x17CA PUSH8 0x2B7D477EC6161F06 PUSH1 0xC0 SHL PUSH2 0x18A5 JUMP JUMPDEST PUSH1 0x0 PUSH20 0xFFFFFFFFFFFFFFFFFFFFFFFFFFFFFFFFFFFFFFFF AND DUP2 PUSH20 0xFFFFFFFFFFFFFFFFFFFFFFFFFFFFFFFFFFFFFFFF AND SUB PUSH2 0x1839 JUMPI PUSH1 0x40 MLOAD PUSH32 0x8C379A000000000000000000000000000000000000000000000000000000000 DUP2 MSTORE PUSH1 0x4 ADD PUSH2 0x1830 SWAP1 PUSH2 0x22C6 JUMP JUMPDEST PUSH1 0x40 MLOAD DUP1 SWAP2 SUB SWAP1 REVERT JUMPDEST PUSH2 0x184D PUSH8 0x15FCC6EEE9191DF0 PUSH1 0xC0 SHL PUSH2 0x18A5 JUMP JUMPDEST PUSH2 0x1861 PUSH8 0x3C3C68D54B9B4A8C PUSH1 0xC0 SHL PUSH2 0x18A5 JUMP JUMPDEST DUP1 PUSH1 0x2 PUSH1 0x0 PUSH2 0x100 EXP DUP2 SLOAD DUP2 PUSH20 0xFFFFFFFFFFFFFFFFFFFFFFFFFFFFFFFFFFFFFFFF MUL NOT AND SWAP1 DUP4 PUSH20 0xFFFFFFFFFFFFFFFFFFFFFFFFFFFFFFFFFFFFFFFF AND MUL OR SWAP1 SSTORE POP POP JUMP JUMPDEST POP JUMP JUMPDEST PUSH1 0x2 PUSH1 0x0 SLOAD SUB PUSH2 0x18E4 JUMPI PUSH1 0x40 MLOAD PUSH32 0x3EE5AEB500000000000000000000000000000000000000000000000000000000 DUP2 MSTORE PUSH1 0x4 ADD PUSH1 0x40 MLOAD DUP1 SWAP2 SUB SWAP1 REVERT JUMPDEST PUSH1 0x2 PUSH1 0x0 DUP2 SWAP1 SSTORE POP JUMP JUMPDEST PUSH1 0x1 PUSH1 0x0 DUP2 SWAP1 SSTORE POP JUMP JUMPDEST PUSH2 0x1900 PUSH2 0x1A50 JUMP JUMPDEST PUSH20 0xFFFFFFFFFFFFFFFFFFFFFFFFFFFFFFFFFFFFFFFF AND PUSH2 0x191E PUSH2 0x12EB JUMP JUMPDEST PUSH20 0xFFFFFFFFFFFFFFFFFFFFFFFFFFFFFFFFFFFFFFFF AND EQ PUSH2 0x197D JUMPI PUSH2 0x1941 PUSH2 0x1A50 JUMP JUMPDEST PUSH1 0x40 MLOAD PUSH32 0x118CDAA700000000000000000000000000000000000000000000000000000000 DUP2 MSTORE PUSH1 0x4 ADD PUSH2 0x1974 SWAP2 SWAP1 PUSH2 0x1BFD JUMP JUMPDEST PUSH1 0x40 MLOAD DUP1 SWAP2 SUB SWAP1 REVERT JUMPDEST JUMP JUMPDEST PUSH1 0x0 PUSH1 0x1 PUSH1 0x0 SWAP1 SLOAD SWAP1 PUSH2 0x100 EXP SWAP1 DIV PUSH20 0xFFFFFFFFFFFFFFFFFFFFFFFFFFFFFFFFFFFFFFFF AND SWAP1 POP DUP2 PUSH1 0x1 PUSH1 0x0 PUSH2 0x100 EXP DUP2 SLOAD DUP2 PUSH20 0xFFFFFFFFFFFFFFFFFFFFFFFFFFFFFFFFFFFFFFFF MUL NOT AND SWAP1 DUP4 PUSH20 0xFFFFFFFFFFFFFFFFFFFFFFFFFFFFFFFFFFFFFFFF AND MUL OR SWAP1 SSTORE POP DUP2 PUSH20 0xFFFFFFFFFFFFFFFFFFFFFFFFFFFFFFFFFFFFFFFF AND DUP2 PUSH20 0xFFFFFFFFFFFFFFFFFFFFFFFFFFFFFFFFFFFFFFFF AND PUSH32 0x8BE0079C531659141344CD1FD0A4F28419497F9722A3DAAFE3B4186F6B6457E0 PUSH1 0x40 MLOAD PUSH1 0x40 MLOAD DUP1 SWAP2 SUB SWAP1 LOG3 POP POP JUMP JUMPDEST PUSH1 0x0 PUSH1 0x1 SWAP1 POP SWAP2 SWAP1 POP JUMP JUMPDEST PUSH1 0x0 CALLER SWAP1 POP SWAP1 JUMP JUMPDEST PUSH1 0x0 DUP1 REVERT JUMPDEST PUSH1 0x0 PUSH20 0xFFFFFFFFFFFFFFFFFFFFFFFFFFFFFFFFFFFFFFFF DUP3 AND SWAP1 POP SWAP2 SWAP1 POP JUMP JUMPDEST PUSH1 0x0 PUSH2 0x1A88 DUP3 PUSH2 0x1A5D JUMP JUMPDEST SWAP1 POP SWAP2 SWAP1 POP JUMP JUMPDEST PUSH2 0x1A98 DUP2 PUSH2 0x1A7D JUMP JUMPDEST DUP2 EQ PUSH2 0x1AA3 JUMPI PUSH1 0x0 DUP1 REVERT JUMPDEST POP JUMP JUMPDEST PUSH1 0x0 DUP2 CALLDATALOAD SWAP1 POP PUSH2 0x1AB5 DUP2 PUSH2 0x1A8F JUMP JUMPDEST SWAP3 SWAP2 POP POP JUMP JUMPDEST PUSH1 0x0 DUP2 SWAP1 POP SWAP2 SWAP1 POP JUMP JUMPDEST PUSH2 0x1ACE DUP2 PUSH2 0x1ABB JUMP JUMPDEST DUP2 EQ PUSH2 0x1AD9 JUMPI PUSH1 0x0 DUP1 REVERT JUMPDEST POP JUMP JUMPDEST PUSH1 0x0 DUP2 CALLDATALOAD SWAP1 POP PUSH2 0x1AEB DUP2 PUSH2 0x1AC5 JUMP JUMPDEST SWAP3 SWAP2 POP POP JUMP JUMPDEST PUSH1 0x0 DUP1 PUSH1 0x0 PUSH1 0x60 DUP5 DUP7 SUB SLT ISZERO PUSH2 0x1B0A JUMPI PUSH2 0x1B09 PUSH2 0x1A58 JUMP JUMPDEST JUMPDEST PUSH1 0x0 PUSH2 0x1B18 DUP7 DUP3 DUP8 ADD PUSH2 0x1AA6 JUMP JUMPDEST SWAP4 POP POP PUSH1 0x20 PUSH2 0x1B29 DUP7 DUP3 DUP8 ADD PUSH2 0x1ADC JUMP JUMPDEST SWAP3 POP POP PUSH1 0x40 PUSH2 0x1B3A DUP7 DUP3 DUP8 ADD PUSH2 0x1AA6 JUMP JUMPDEST SWAP2 POP POP SWAP3 POP SWAP3 POP SWAP3 JUMP JUMPDEST PUSH2 0x1B4D DUP2 PUSH2 0x1ABB JUMP JUMPDEST DUP3 MSTORE POP POP JUMP JUMPDEST PUSH1 0x0 PUSH1 0x20 DUP3 ADD SWAP1 POP PUSH2 0x1B68 PUSH1 0x0 DUP4 ADD DUP5 PUSH2 0x1B44 JUMP JUMPDEST SWAP3 SWAP2 POP POP JUMP JUMPDEST PUSH1 0x0 DUP1 PUSH1 0x0 PUSH1 0x60 DUP5 DUP7 SUB SLT ISZERO PUSH2 0x1B87 JUMPI PUSH2 0x1B86 PUSH2 0x1A58 JUMP JUMPDEST JUMPDEST PUSH1 0x0 PUSH2 0x1B95 DUP7 DUP3 DUP8 ADD PUSH2 0x1ADC JUMP JUMPDEST SWAP4 POP POP PUSH1 0x20 PUSH2 0x1BA6 DUP7 DUP3 DUP8 ADD PUSH2 0x1ADC JUMP JUMPDEST SWAP3 POP POP PUSH1 0x40 PUSH2 0x1BB7 DUP7 DUP3 DUP8 ADD PUSH2 0x1ADC JUMP JUMPDEST SWAP2 POP POP SWAP3 POP SWAP3 POP SWAP3 JUMP JUMPDEST PUSH1 0x0 PUSH1 0x20 DUP3 DUP5 SUB SLT ISZERO PUSH2 0x1BD7 JUMPI PUSH2 0x1BD6 PUSH2 0x1A58 JUMP JUMPDEST JUMPDEST PUSH1 0x0 PUSH2 0x1BE5 DUP5 DUP3 DUP6 ADD PUSH2 0x1ADC JUMP JUMPDEST SWAP2 POP POP SWAP3 SWAP2 POP POP JUMP JUMPDEST PUSH2 0x1BF7 DUP2 PUSH2 0x1A7D JUMP JUMPDEST DUP3 MSTORE POP POP JUMP JUMPDEST PUSH1 0x0 PUSH1 0x20 DUP3 ADD SWAP1 POP PUSH2 0x1C12 PUSH1 0x0 DUP4 ADD DUP5 PUSH2 0x1BEE JUMP JUMPDEST SWAP3 SWAP2 POP POP JUMP JUMPDEST PUSH1 0x0 DUP2 ISZERO ISZERO SWAP1 POP SWAP2 SWAP1 POP JUMP JUMPDEST PUSH2 0x1C2D DUP2 PUSH2 0x1C18 JUMP JUMPDEST DUP3 MSTORE POP POP JUMP JUMPDEST PUSH1 0x0 PUSH1 0xC0 DUP3 ADD SWAP1 POP PUSH2 0x1C48 PUSH1 0x0 DUP4 ADD DUP10 PUSH2 0x1BEE JUMP JUMPDEST PUSH2 0x1C55 PUSH1 0x20 DUP4 ADD DUP9 PUSH2 0x1BEE JUMP JUMPDEST PUSH2 0x1C62 PUSH1 0x40 DUP4 ADD DUP8 PUSH2 0x1B44 JUMP JUMPDEST PUSH2 0x1C6F PUSH1 0x60 DUP4 ADD DUP7 PUSH2 0x1BEE JUMP JUMPDEST PUSH2 0x1C7C PUSH1 0x80 DUP4 ADD DUP6 PUSH2 0x1C24 JUMP JUMPDEST PUSH2 0x1C89 PUSH1 0xA0 DUP4 ADD DUP5 PUSH2 0x1C24 JUMP JUMPDEST SWAP8 SWAP7 POP POP POP POP POP POP POP JUMP JUMPDEST PUSH1 0x0 PUSH1 0x20 DUP3 DUP5 SUB SLT ISZERO PUSH2 0x1CAA JUMPI PUSH2 0x1CA9 PUSH2 0x1A58 JUMP JUMPDEST JUMPDEST PUSH1 0x0 PUSH2 0x1CB8 DUP5 DUP3 DUP6 ADD PUSH2 0x1AA6 JUMP JUMPDEST SWAP2 POP POP SWAP3 SWAP2 POP POP JUMP JUMPDEST PUSH1 0x0 PUSH1 0x40 DUP3 ADD SWAP1 POP PUSH2 0x1CD6 PUSH1 0x0 DUP4 ADD DUP6 PUSH2 0x1B44 JUMP JUMPDEST PUSH2 0x1CE3 PUSH1 0x20 DUP4 ADD DUP5 PUSH2 0x1BEE JUMP JUMPDEST SWAP4 SWAP3 POP POP POP JUMP JUMPDEST PUSH32 0x4E487B7100000000000000000000000000000000000000000000000000000000 PUSH1 0x0 MSTORE PUSH1 0x11 PUSH1 0x4 MSTORE PUSH1 0x24 PUSH1 0x0 REVERT JUMPDEST PUSH1 0x0 PUSH2 0x1D24 DUP3 PUSH2 0x1ABB JUMP JUMPDEST SWAP2 POP PUSH32 0xFFFFFFFFFFFFFFFFFFFFFFFFFFFFFFFFFFFFFFFFFFFFFFFFFFFFFFFFFFFFFFFF DUP3 SUB PUSH2 0x1D56 JUMPI PUSH2 0x1D55 PUSH2 0x1CEA JUMP JUMPDEST JUMPDEST PUSH1 0x1 DUP3 ADD SWAP1 POP SWAP2 SWAP1 POP JUMP JUMPDEST PUSH1 0x0 DUP3 DUP3 MSTORE PUSH1 0x20 DUP3 ADD SWAP1 POP SWAP3 SWAP2 POP POP JUMP JUMPDEST PUSH32 0x43616C6C6572206973206E6F74207468652061726269747261746F7200000000 PUSH1 0x0 DUP3 ADD MSTORE POP JUMP JUMPDEST PUSH1 0x0 PUSH2 0x1DA8 PUSH1 0x1C DUP4 PUSH2 0x1D61 JUMP JUMPDEST SWAP2 POP PUSH2 0x1DB3 DUP3 PUSH2 0x1D72 JUMP JUMPDEST PUSH1 0x20 DUP3 ADD SWAP1 POP SWAP2 SWAP1 POP JUMP JUMPDEST PUSH1 0x0 PUSH1 0x20 DUP3 ADD SWAP1 POP DUP2 DUP2 SUB PUSH1 0x0 DUP4 ADD MSTORE PUSH2 0x1DD7 DUP2 PUSH2 0x1D9B JUMP JUMPDEST SWAP1 POP SWAP2 SWAP1 POP JUMP JUMPDEST PUSH32 0x41677265656D656E74206973206E6F7420646973707574656400000000000000 PUSH1 0x0 DUP3 ADD MSTORE POP JUMP JUMPDEST PUSH1 0x0 PUSH2 0x1E14 PUSH1 0x19 DUP4 PUSH2 0x1D61 JUMP JUMPDEST SWAP2 POP PUSH2 0x1E1F DUP3 PUSH2 0x1DDE JUMP JUMPDEST PUSH1 0x20 DUP3 ADD SWAP1 POP SWAP2 SWAP1 POP JUMP JUMPDEST PUSH1 0x0 PUSH1 0x20 DUP3 ADD SWAP1 POP DUP2 DUP2 SUB PUSH1 0x0 DUP4 ADD MSTORE PUSH2 0x1E43 DUP2 PUSH2 0x1E07 JUMP JUMPDEST SWAP1 POP SWAP2 SWAP1 POP JUMP JUMPDEST PUSH1 0x0 PUSH2 0x1E55 DUP3 PUSH2 0x1ABB JUMP JUMPDEST SWAP2 POP PUSH2 0x1E60 DUP4 PUSH2 0x1ABB JUMP JUMPDEST SWAP3 POP DUP3 DUP3 ADD SWAP1 POP DUP1 DUP3 GT ISZERO PUSH2 0x1E78 JUMPI PUSH2 0x1E77 PUSH2 0x1CEA JUMP JUMPDEST JUMPDEST SWAP3 SWAP2 POP POP JUMP JUMPDEST PUSH32 0x496E636F727265637420616C6C6F636174696F6E000000000000000000000000 PUSH1 0x0 DUP3 ADD MSTORE POP JUMP JUMPDEST PUSH1 0x0 PUSH2 0x1EB4 PUSH1 0x14 DUP4 PUSH2 0x1D61 JUMP JUMPDEST SWAP2 POP PUSH2 0x1EBF DUP3 PUSH2 0x1E7E JUMP JUMPDEST PUSH1 0x20 DUP3 ADD SWAP1 POP SWAP2 SWAP1 POP JUMP JUMPDEST PUSH1 0x0 PUSH1 0x20 DUP3 ADD SWAP1 POP DUP2 DUP2 SUB PUSH1 0x0 DUP4 ADD MSTORE PUSH2 0x1EE3 DUP2 PUSH2 0x1EA7 JUMP JUMPDEST SWAP1 POP SWAP2 SWAP1 POP JUMP JUMPDEST PUSH1 0x0 PUSH1 0x40 DUP3 ADD SWAP1 POP PUSH2 0x1EFF PUSH1 0x0 DUP4 ADD DUP6 PUSH2 0x1BEE JUMP JUMPDEST PUSH2 0x1F0C PUSH1 0x20 DUP4 ADD DUP5 PUSH2 0x1B44 JUMP JUMPDEST SWAP4 SWAP3 POP POP POP JUMP JUMPDEST PUSH2 0x1F1C DUP2 PUSH2 0x1C18 JUMP JUMPDEST DUP2 EQ PUSH2 0x1F27 JUMPI PUSH1 0x0 DUP1 REVERT JUMPDEST POP JUMP JUMPDEST PUSH1 0x0 DUP2 MLOAD SWAP1 POP PUSH2 0x1F39 DUP2 PUSH2 0x1F13 JUMP JUMPDEST SWAP3 SWAP2 POP POP JUMP JUMPDEST PUSH1 0x0 PUSH1 0x20 DUP3 DUP5 SUB SLT ISZERO PUSH2 0x1F55 JUMPI PUSH2 0x1F54 PUSH2 0x1A58 JUMP JUMPDEST JUMPDEST PUSH1 0x0 PUSH2 0x1F63 DUP5 DUP3 DUP6 ADD PUSH2 0x1F2A JUMP JUMPDEST SWAP2 POP POP SWAP3 SWAP2 POP POP JUMP JUMPDEST PUSH1 0x0 PUSH1 0x40 DUP3 ADD SWAP1 POP PUSH2 0x1F81 PUSH1 0x0 DUP4 ADD DUP6 PUSH2 0x1B44 JUMP JUMPDEST PUSH2 0x1F8E PUSH1 0x20 DUP4 ADD DUP5 PUSH2 0x1B44 JUMP JUMPDEST SWAP4 SWAP3 POP POP POP JUMP JUMPDEST PUSH32 0x43616C6C6572206973206E6F7420746865206275796572000000000000000000 PUSH1 0x0 DUP3 ADD MSTORE POP JUMP JUMPDEST PUSH1 0x0 PUSH2 0x1FCB PUSH1 0x17 DUP4 PUSH2 0x1D61 JUMP JUMPDEST SWAP2 POP PUSH2 0x1FD6 DUP3 PUSH2 0x1F95 JUMP JUMPDEST PUSH1 0x20 DUP3 ADD SWAP1 POP SWAP2 SWAP1 POP JUMP JUMPDEST PUSH1 0x0 PUSH1 0x20 DUP3 ADD SWAP1 POP DUP2 DUP2 SUB PUSH1 0x0 DUP4 ADD MSTORE PUSH2 0x1FFA DUP2 PUSH2 0x1FBE JUMP JUMPDEST SWAP1 POP SWAP2 SWAP1 POP JUMP JUMPDEST PUSH32 0x41677265656D656E742069732064697370757465640000000000000000000000 PUSH1 0x0 DUP3 ADD MSTORE POP JUMP JUMPDEST PUSH1 0x0 PUSH2 0x2037 PUSH1 0x15 DUP4 PUSH2 0x1D61 JUMP JUMPDEST SWAP2 POP PUSH2 0x2042 DUP3 PUSH2 0x2001 JUMP JUMPDEST PUSH1 0x20 DUP3 ADD SWAP1 POP SWAP2 SWAP1 POP JUMP JUMPDEST PUSH1 0x0 PUSH1 0x20 DUP3 ADD SWAP1 POP DUP2 DUP2 SUB PUSH1 0x0 DUP4 ADD MSTORE PUSH2 0x2066 DUP2 PUSH2 0x202A JUMP JUMPDEST SWAP1 POP SWAP2 SWAP1 POP JUMP JUMPDEST PUSH32 0x41677265656D656E7420697320616C7265616479207265736F6C766564000000 PUSH1 0x0 DUP3 ADD MSTORE POP JUMP JUMPDEST PUSH1 0x0 PUSH2 0x20A3 PUSH1 0x1D DUP4 PUSH2 0x1D61 JUMP JUMPDEST SWAP2 POP PUSH2 0x20AE DUP3 PUSH2 0x206D JUMP JUMPDEST PUSH1 0x20 DUP3 ADD SWAP1 POP SWAP2 SWAP1 POP JUMP JUMPDEST PUSH1 0x0 PUSH1 0x20 DUP3 ADD SWAP1 POP DUP2 DUP2 SUB PUSH1 0x0 DUP4 ADD MSTORE PUSH2 0x20D2 DUP2 PUSH2 0x2096 JUMP JUMPDEST SWAP1 POP SWAP2 SWAP1 POP JUMP JUMPDEST PUSH32 0x496E636F72726563742045544820616D6F756E74000000000000000000000000 PUSH1 0x0 DUP3 ADD MSTORE POP JUMP JUMPDEST PUSH1 0x0 PUSH2 0x210F PUSH1 0x14 DUP4 PUSH2 0x1D61 JUMP JUMPDEST SWAP2 POP PUSH2 0x211A DUP3 PUSH2 0x20D9 JUMP JUMPDEST PUSH1 0x20 DUP3 ADD SWAP1 POP SWAP2 SWAP1 POP JUMP JUMPDEST PUSH1 0x0 PUSH1 0x20 DUP3 ADD SWAP1 POP DUP2 DUP2 SUB PUSH1 0x0 DUP4 ADD MSTORE PUSH2 0x213E DUP2 PUSH2 0x2102 JUMP JUMPDEST SWAP1 POP SWAP2 SWAP1 POP JUMP JUMPDEST PUSH1 0x0 PUSH1 0x60 DUP3 ADD SWAP1 POP PUSH2 0x215A PUSH1 0x0 DUP4 ADD DUP7 PUSH2 0x1BEE JUMP JUMPDEST PUSH2 0x2167 PUSH1 0x20 DUP4 ADD DUP6 PUSH2 0x1BEE JUMP JUMPDEST PUSH2 0x2174 PUSH1 0x40 DUP4 ADD DUP5 PUSH2 0x1B44 JUMP JUMPDEST SWAP5 SWAP4 POP POP POP POP JUMP JUMPDEST PUSH32 0x546F6B656E207472616E73666572206661696C65640000000000000000000000 PUSH1 0x0 DUP3 ADD MSTORE POP JUMP JUMPDEST PUSH1 0x0 PUSH2 0x21B2 PUSH1 0x15 DUP4 PUSH2 0x1D61 JUMP JUMPDEST SWAP2 POP PUSH2 0x21BD DUP3 PUSH2 0x217C JUMP JUMPDEST PUSH1 0x20 DUP3 ADD SWAP1 POP SWAP2 SWAP1 POP JUMP JUMPDEST PUSH1 0x0 PUSH1 0x20 DUP3 ADD SWAP1 POP DUP2 DUP2 SUB PUSH1 0x0 DUP4 ADD MSTORE PUSH2 0x21E1 DUP2 PUSH2 0x21A5 JUMP JUMPDEST SWAP1 POP SWAP2 SWAP1 POP JUMP JUMPDEST PUSH32 0x43616C6C6572206973206E6F742070617274206F66207468652061677265656D PUSH1 0x0 DUP3 ADD MSTORE PUSH32 0x656E740000000000000000000000000000000000000000000000000000000000 PUSH1 0x20 DUP3 ADD MSTORE POP JUMP JUMPDEST PUSH1 0x0 PUSH2 0x2244 PUSH1 0x23 DUP4 PUSH2 0x1D61 JUMP JUMPDEST SWAP2 POP PUSH2 0x224F DUP3 PUSH2 0x21E8 JUMP JUMPDEST PUSH1 0x40 DUP3 ADD SWAP1 POP SWAP2 SWAP1 POP JUMP JUMPDEST PUSH1 0x0 PUSH1 0x20 DUP3 ADD SWAP1 POP DUP2 DUP2 SUB PUSH1 0x0 DUP4 ADD MSTORE PUSH2 0x2273 DUP2 PUSH2 0x2237 JUMP JUMPDEST SWAP1 POP SWAP2 SWAP1 POP JUMP JUMPDEST PUSH32 0x496E76616C69642061726269747261746F722061646472657373000000000000 PUSH1 0x0 DUP3 ADD MSTORE POP JUMP JUMPDEST PUSH1 0x0 PUSH2 0x22B0 PUSH1 0x1A DUP4 PUSH2 0x1D61 JUMP JUMPDEST SWAP2 POP PUSH2 0x22BB DUP3 PUSH2 0x227A JUMP JUMPDEST PUSH1 0x20 DUP3 ADD SWAP1 POP SWAP2 SWAP1 POP JUMP JUMPDEST PUSH1 0x0 PUSH1 0x20 DUP3 ADD SWAP1 POP DUP2 DUP2 SUB PUSH1 0x0 DUP4 ADD MSTORE PUSH2 0x22DF DUP2 PUSH2 0x22A3 JUMP JUMPDEST SWAP1 POP SWAP2 SWAP1 POP JUMP INVALID LOG2 PUSH5 0x6970667358 0x22 SLT KECCAK256 CALLVALUE PUSH11 0x8ACB82BC4AE08EC42FA222 0xB3 0xDF NUMBER 0xC 0xEA DUP1 0xC3 SHR 0xAF SIGNEXTEND PUSH23 0xE14A3F5E64E3B66764736F6C6343000814003300000000 "},"methodIdentifiers":{"agreements(uint256)":"bd14de96","arbitrator()":"6cc6cde1","changeArbitrator(address)":"fc548f08","createAgreement(address,uint256,address)":"1f40b59e","depositPayment(uint256)":"6b749c47","nextAgreementId()":"c9b99dab","owner()":"8da5cb5b","raiseDispute(uint256)":"a5c1674e","renounceOwnership()":"715018a6","resolveDispute(uint256,uint256,uint256)":"3fabe74f","transferOwnership(address)":"f2fde38b"}}}}}