{
  "_format": "hh-sol-artifact-1",
  "contractName": "SaleAgreement",
  "sourceName": "contracts/saleAgreement.sol",
  "abi": [
    {
      "inputs": [
        {
          "internalType": "address",
          "name": "_arbitrator",
          "type": "address"
        },
        {
          "internalType": "address",
          "name": "_owner",
          "type": "address"
        }
      ],
      "stateMutability": "nonpayable",
      "type": "constructor"
    },
    {
      "inputs": [
        {
          "internalType": "address",
          "name": "owner",
          "type": "address"
        }
      ],
      "name": "OwnableInvalidOwner",
      "type": "error"
    },
    {
      "inputs": [
        {
          "internalType": "address",
          "name": "account",
          "type": "address"
        }
      ],
      "name": "OwnableUnauthorizedAccount",
      "type": "error"
    },
    {
      "inputs": [],
      "name": "ReentrancyGuardReentrantCall",
      "type": "error"
    },
    {
      "anonymous": false,
      "inputs": [
        {
          "indexed": true,
          "internalType": "uint256",
          "name": "agreementId",
          "type": "uint256"
        },
        {
          "indexed": true,
          "internalType": "address",
          "name": "seller",
          "type": "address"
        },
        {
          "indexed": true,
          "internalType": "address",
          "name": "buyer",
          "type": "address"
        },
        {
          "indexed": false,
          "internalType": "uint256",
          "name": "price",
          "type": "uint256"
        },
        {
          "indexed": false,
          "internalType": "address",
          "name": "tokenAddress",
          "type": "address"
        }
      ],
      "name": "AgreementCreated",
      "type": "event"
    },
    {
      "anonymous": false,
      "inputs": [
        {
          "indexed": true,
          "internalType": "uint256",
          "name": "agreementId",
          "type": "uint256"
        }
      ],
      "name": "DisputeRaised",
      "type": "event"
    },
    {
      "anonymous": false,
      "inputs": [
        {
          "indexed": true,
          "internalType": "uint256",
          "name": "agreementId",
          "type": "uint256"
        },
        {
          "indexed": false,
          "internalType": "uint256",
          "name": "sellerAmount",
          "type": "uint256"
        },
        {
          "indexed": false,
          "internalType": "uint256",
          "name": "buyerAmount",
          "type": "uint256"
        }
      ],
      "name": "DisputeResolved",
      "type": "event"
    },
    {
      "anonymous": false,
      "inputs": [
        {
          "indexed": true,
          "internalType": "address",
          "name": "previousOwner",
          "type": "address"
        },
        {
          "indexed": true,
          "internalType": "address",
          "name": "newOwner",
          "type": "address"
        }
      ],
      "name": "OwnershipTransferred",
      "type": "event"
    },
    {
      "anonymous": false,
      "inputs": [
        {
          "indexed": true,
          "internalType": "uint256",
          "name": "agreementId",
          "type": "uint256"
        },
        {
          "indexed": true,
          "internalType": "address",
          "name": "payer",
          "type": "address"
        },
        {
          "indexed": false,
          "internalType": "uint256",
          "name": "amount",
          "type": "uint256"
        }
      ],
      "name": "PaymentDeposited",
      "type": "event"
    },
    {
      "inputs": [
        {
          "internalType": "uint256",
          "name": "",
          "type": "uint256"
        }
      ],
      "name": "agreements",
      "outputs": [
        {
          "internalType": "address",
          "name": "seller",
          "type": "address"
        },
        {
          "internalType": "address",
          "name": "buyer",
          "type": "address"
        },
        {
          "internalType": "uint256",
          "name": "price",
          "type": "uint256"
        },
        {
          "internalType": "address",
          "name": "tokenAddress",
          "type": "address"
        },
        {
          "internalType": "bool",
          "name": "isDisputed",
          "type": "bool"
        },
        {
          "internalType": "bool",
          "name": "isResolved",
          "type": "bool"
        }
      ],
      "stateMutability": "view",
      "type": "function"
    },
    {
      "inputs": [],
      "name": "arbitrator",
      "outputs": [
        {
          "internalType": "address",
          "name": "",
          "type": "address"
        }
      ],
      "stateMutability": "view",
      "type": "function"
    },
    {
      "inputs": [
        {
          "internalType": "address",
          "name": "_newArbitrator",
          "type": "address"
        }
      ],
      "name": "changeArbitrator",
      "outputs": [],
      "stateMutability": "nonpayable",
      "type": "function"
    },
    {
      "inputs": [
        {
          "internalType": "address",
          "name": "_buyer",
          "type": "address"
        },
        {
          "internalType": "uint256",
          "name": "_price",
          "type": "uint256"
        },
        {
          "internalType": "address",
          "name": "_tokenAddress",
          "type": "address"
        }
      ],
      "name": "createAgreement",
      "outputs": [
        {
          "internalType": "uint256",
          "name": "",
          "type": "uint256"
        }
      ],
      "stateMutability": "nonpayable",
      "type": "function"
    },
    {
      "inputs": [
        {
          "internalType": "uint256",
          "name": "_agreementId",
          "type": "uint256"
        }
      ],
      "name": "depositPayment",
      "outputs": [],
      "stateMutability": "payable",
      "type": "function"
    },
    {
      "inputs": [],
      "name": "nextAgreementId",
      "outputs": [
        {
          "internalType": "uint256",
          "name": "",
          "type": "uint256"
        }
      ],
      "stateMutability": "view",
      "type": "function"
    },
    {
      "inputs": [],
      "name": "owner",
      "outputs": [
        {
          "internalType": "address",
          "name": "",
          "type": "address"
        }
      ],
      "stateMutability": "view",
      "type": "function"
    },
    {
      "inputs": [
        {
          "internalType": "uint256",
          "name": "_agreementId",
          "type": "uint256"
        }
      ],
      "name": "raiseDispute",
      "outputs": [],
      "stateMutability": "nonpayable",
      "type": "function"
    },
    {
      "inputs": [],
      "name": "renounceOwnership",
      "outputs": [],
      "stateMutability": "nonpayable",
      "type": "function"
    },
    {
      "inputs": [
        {
          "internalType": "uint256",
          "name": "_agreementId",
          "type": "uint256"
        },
        {
          "internalType": "uint256",
          "name": "_sellerAmount",
          "type": "uint256"
        },
        {
          "internalType": "uint256",
          "name": "_buyerAmount",
          "type": "uint256"
        }
      ],
      "name": "resolveDispute",
      "outputs": [],
      "stateMutability": "nonpayable",
      "type": "function"
    },
    {
      "inputs": [
        {
          "internalType": "address",
          "name": "newOwner",
          "type": "address"
        }
      ],
      "name": "transferOwnership",
      "outputs": [],
      "stateMutability": "nonpayable",
      "type": "function"
    }
  ],
  "bytecode": "0x60806040523480156200001157600080fd5b5060405162001e7a38038062001e7a8339818101604052810190620000379190620002b2565b806001600081905550600073ffffffffffffffffffffffffffffffffffffffff168173ffffffffffffffffffffffffffffffffffffffff1603620000b55760006040517f1e4fbdf7000000000000000000000000000000000000000000000000000000008152600401620000ac91906200030a565b60405180910390fd5b620000c6816200018260201b60201c565b50600073ffffffffffffffffffffffffffffffffffffffff168273ffffffffffffffffffffffffffffffffffffffff160362000139576040517f08c379a0000000000000000000000000000000000000000000000000000000008152600401620001309062000388565b60405180910390fd5b81600260006101000a81548173ffffffffffffffffffffffffffffffffffffffff021916908373ffffffffffffffffffffffffffffffffffffffff1602179055505050620003aa565b6000600160009054906101000a900473ffffffffffffffffffffffffffffffffffffffff16905081600160006101000a81548173ffffffffffffffffffffffffffffffffffffffff021916908373ffffffffffffffffffffffffffffffffffffffff1602179055508173ffffffffffffffffffffffffffffffffffffffff168173ffffffffffffffffffffffffffffffffffffffff167f8be0079c531659141344cd1fd0a4f28419497f9722a3daafe3b4186f6b6457e060405160405180910390a35050565b600080fd5b600073ffffffffffffffffffffffffffffffffffffffff82169050919050565b60006200027a826200024d565b9050919050565b6200028c816200026d565b81146200029857600080fd5b50565b600081519050620002ac8162000281565b92915050565b60008060408385031215620002cc57620002cb62000248565b5b6000620002dc858286016200029b565b9250506020620002ef858286016200029b565b9150509250929050565b62000304816200026d565b82525050565b6000602082019050620003216000830184620002f9565b92915050565b600082825260208201905092915050565b7f496e76616c69642061726269747261746f722061646472657373000000000000600082015250565b600062000370601a8362000327565b91506200037d8262000338565b602082019050919050565b60006020820190508181036000830152620003a38162000361565b9050919050565b611ac080620003ba6000396000f3fe60806040526004361061009c5760003560e01c80638da5cb5b116100645780638da5cb5b14610165578063a5c1674e14610190578063bd14de96146101b9578063c9b99dab146101fb578063f2fde38b14610226578063fc548f081461024f5761009c565b80631f40b59e146100a15780633fabe74f146100de5780636b749c47146101075780636cc6cde114610123578063715018a61461014e575b600080fd5b3480156100ad57600080fd5b506100c860048036038101906100c39190611295565b610278565b6040516100d591906112f7565b60405180910390f35b3480156100ea57600080fd5b5061010560048036038101906101009190611312565b6104b0565b005b610121600480360381019061011c9190611365565b61090e565b005b34801561012f57600080fd5b50610138610c53565b60405161014591906113a1565b60405180910390f35b34801561015a57600080fd5b50610163610c79565b005b34801561017157600080fd5b5061017a610c8d565b60405161018791906113a1565b60405180910390f35b34801561019c57600080fd5b506101b760048036038101906101b29190611365565b610cb7565b005b3480156101c557600080fd5b506101e060048036038101906101db9190611365565b610e5a565b6040516101f2969594939291906113d7565b60405180910390f35b34801561020757600080fd5b50610210610f10565b60405161021d91906112f7565b60405180910390f35b34801561023257600080fd5b5061024d60048036038101906102489190611438565b610f16565b005b34801561025b57600080fd5b5061027660048036038101906102719190611438565b610f9c565b005b60006040518060c001604052803373ffffffffffffffffffffffffffffffffffffffff1681526020018573ffffffffffffffffffffffffffffffffffffffff1681526020018481526020018373ffffffffffffffffffffffffffffffffffffffff1681526020016000151581526020016000151581525060036000600454815260200190815260200160002060008201518160000160006101000a81548173ffffffffffffffffffffffffffffffffffffffff021916908373ffffffffffffffffffffffffffffffffffffffff16021790555060208201518160010160006101000a81548173ffffffffffffffffffffffffffffffffffffffff021916908373ffffffffffffffffffffffffffffffffffffffff1602179055506040820151816002015560608201518160030160006101000a81548173ffffffffffffffffffffffffffffffffffffffff021916908373ffffffffffffffffffffffffffffffffffffffff16021790555060808201518160030160146101000a81548160ff02191690831515021790555060a08201518160030160156101000a81548160ff0219169083151502179055509050508373ffffffffffffffffffffffffffffffffffffffff163373ffffffffffffffffffffffffffffffffffffffff166004547f0c73c79e096f50541645465910102237c855a5979f3e3a5b95ec0323a86e27738686604051610488929190611465565b60405180910390a4600460008154809291906104a3906114bd565b9190505590509392505050565b600260009054906101000a900473ffffffffffffffffffffffffffffffffffffffff1673ffffffffffffffffffffffffffffffffffffffff163373ffffffffffffffffffffffffffffffffffffffff1614610540576040517f08c379a000000000000000000000000000000000000000000000000000000000815260040161053790611562565b60405180910390fd5b60006003600085815260200190815260200160002090508060030160149054906101000a900460ff166105a8576040517f08c379a000000000000000000000000000000000000000000000000000000000815260040161059f906115ce565b60405180910390fd5b806002015482846105b991906115ee565b146105f9576040517f08c379a00000000000000000000000000000000000000000000000000000000081526004016105f09061166e565b60405180910390fd5b600073ffffffffffffffffffffffffffffffffffffffff168160030160009054906101000a900473ffffffffffffffffffffffffffffffffffffffff1673ffffffffffffffffffffffffffffffffffffffff160361072c578060000160009054906101000a900473ffffffffffffffffffffffffffffffffffffffff1673ffffffffffffffffffffffffffffffffffffffff166108fc849081150290604051600060405180830381858888f193505050501580156106bb573d6000803e3d6000fd5b508060010160009054906101000a900473ffffffffffffffffffffffffffffffffffffffff1673ffffffffffffffffffffffffffffffffffffffff166108fc839081150290604051600060405180830381858888f19350505050158015610726573d6000803e3d6000fd5b506108b1565b60008160030160009054906101000a900473ffffffffffffffffffffffffffffffffffffffff1690506000841115610802578073ffffffffffffffffffffffffffffffffffffffff1663a9059cbb8360000160009054906101000a900473ffffffffffffffffffffffffffffffffffffffff16866040518363ffffffff1660e01b81526004016107bd92919061168e565b6020604051808303816000875af11580156107dc573d6000803e3d6000fd5b505050506040513d601f19601f8201168201806040525081019061080091906116e3565b505b60008311156108af578073ffffffffffffffffffffffffffffffffffffffff1663a9059cbb8360010160009054906101000a900473ffffffffffffffffffffffffffffffffffffffff16856040518363ffffffff1660e01b815260040161086a92919061168e565b6020604051808303816000875af1158015610889573d6000803e3d6000fd5b505050506040513d601f19601f820116820180604052508101906108ad91906116e3565b505b505b60018160030160156101000a81548160ff021916908315150217905550837f959dc01840aa516bf9407cffa45326c7b6821c48feff7b91eb0c743c8f460fd68484604051610900929190611710565b60405180910390a250505050565b610916611057565b60006003600083815260200190815260200160002090508060010160009054906101000a900473ffffffffffffffffffffffffffffffffffffffff1673ffffffffffffffffffffffffffffffffffffffff163373ffffffffffffffffffffffffffffffffffffffff16146109bf576040517f08c379a00000000000000000000000000000000000000000000000000000000081526004016109b690611785565b60405180910390fd5b8060030160149054906101000a900460ff1615610a11576040517f08c379a0000000000000000000000000000000000000000000000000000000008152600401610a08906117f1565b60405180910390fd5b8060030160159054906101000a900460ff1615610a63576040517f08c379a0000000000000000000000000000000000000000000000000000000008152600401610a5a9061185d565b60405180910390fd5b600073ffffffffffffffffffffffffffffffffffffffff168160030160009054906101000a900473ffffffffffffffffffffffffffffffffffffffff1673ffffffffffffffffffffffffffffffffffffffff1603610b065780600201543414610b01576040517f08c379a0000000000000000000000000000000000000000000000000000000008152600401610af8906118c9565b60405180910390fd5b610bf4565b60008160030160009054906101000a900473ffffffffffffffffffffffffffffffffffffffff1690508073ffffffffffffffffffffffffffffffffffffffff166323b872dd333085600201546040518463ffffffff1660e01b8152600401610b70939291906118e9565b6020604051808303816000875af1158015610b8f573d6000803e3d6000fd5b505050506040513d601f19601f82011682018060405250810190610bb391906116e3565b610bf2576040517f08c379a0000000000000000000000000000000000000000000000000000000008152600401610be99061196c565b60405180910390fd5b505b3373ffffffffffffffffffffffffffffffffffffffff16827f71284872bb4c088a81295dff2513729babbccfeda38a8d824bb1a73bcaab494e8360020154604051610c3f91906112f7565b60405180910390a350610c5061109d565b50565b600260009054906101000a900473ffffffffffffffffffffffffffffffffffffffff1681565b610c816110a7565b610c8b600061112e565b565b6000600160009054906101000a900473ffffffffffffffffffffffffffffffffffffffff16905090565b60006003600083815260200190815260200160002090508060010160009054906101000a900473ffffffffffffffffffffffffffffffffffffffff1673ffffffffffffffffffffffffffffffffffffffff163373ffffffffffffffffffffffffffffffffffffffff161480610d7b57508060000160009054906101000a900473ffffffffffffffffffffffffffffffffffffffff1673ffffffffffffffffffffffffffffffffffffffff163373ffffffffffffffffffffffffffffffffffffffff16145b610dba576040517f08c379a0000000000000000000000000000000000000000000000000000000008152600401610db1906119fe565b60405180910390fd5b8060030160159054906101000a900460ff1615610e0c576040517f08c379a0000000000000000000000000000000000000000000000000000000008152600401610e039061185d565b60405180910390fd5b60018160030160146101000a81548160ff021916908315150217905550817f04901f83201c8724eadf084436db8aa391820bae6d11f9f78a17edb6f2eef3cf60405160405180910390a25050565b60036020528060005260406000206000915090508060000160009054906101000a900473ffffffffffffffffffffffffffffffffffffffff16908060010160009054906101000a900473ffffffffffffffffffffffffffffffffffffffff16908060020154908060030160009054906101000a900473ffffffffffffffffffffffffffffffffffffffff16908060030160149054906101000a900460ff16908060030160159054906101000a900460ff16905086565b60045481565b610f1e6110a7565b600073ffffffffffffffffffffffffffffffffffffffff168173ffffffffffffffffffffffffffffffffffffffff1603610f905760006040517f1e4fbdf7000000000000000000000000000000000000000000000000000000008152600401610f8791906113a1565b60405180910390fd5b610f998161112e565b50565b610fa46110a7565b600073ffffffffffffffffffffffffffffffffffffffff168173ffffffffffffffffffffffffffffffffffffffff1603611013576040517f08c379a000000000000000000000000000000000000000000000000000000000815260040161100a90611a6a565b60405180910390fd5b80600260006101000a81548173ffffffffffffffffffffffffffffffffffffffff021916908373ffffffffffffffffffffffffffffffffffffffff16021790555050565b600260005403611093576040517f3ee5aeb500000000000000000000000000000000000000000000000000000000815260040160405180910390fd5b6002600081905550565b6001600081905550565b6110af6111f4565b73ffffffffffffffffffffffffffffffffffffffff166110cd610c8d565b73ffffffffffffffffffffffffffffffffffffffff161461112c576110f06111f4565b6040517f118cdaa700000000000000000000000000000000000000000000000000000000815260040161112391906113a1565b60405180910390fd5b565b6000600160009054906101000a900473ffffffffffffffffffffffffffffffffffffffff16905081600160006101000a81548173ffffffffffffffffffffffffffffffffffffffff021916908373ffffffffffffffffffffffffffffffffffffffff1602179055508173ffffffffffffffffffffffffffffffffffffffff168173ffffffffffffffffffffffffffffffffffffffff167f8be0079c531659141344cd1fd0a4f28419497f9722a3daafe3b4186f6b6457e060405160405180910390a35050565b600033905090565b600080fd5b600073ffffffffffffffffffffffffffffffffffffffff82169050919050565b600061122c82611201565b9050919050565b61123c81611221565b811461124757600080fd5b50565b60008135905061125981611233565b92915050565b6000819050919050565b6112728161125f565b811461127d57600080fd5b50565b60008135905061128f81611269565b92915050565b6000806000606084860312156112ae576112ad6111fc565b5b60006112bc8682870161124a565b93505060206112cd86828701611280565b92505060406112de8682870161124a565b9150509250925092565b6112f18161125f565b82525050565b600060208201905061130c60008301846112e8565b92915050565b60008060006060848603121561132b5761132a6111fc565b5b600061133986828701611280565b935050602061134a86828701611280565b925050604061135b86828701611280565b9150509250925092565b60006020828403121561137b5761137a6111fc565b5b600061138984828501611280565b91505092915050565b61139b81611221565b82525050565b60006020820190506113b66000830184611392565b92915050565b60008115159050919050565b6113d1816113bc565b82525050565b600060c0820190506113ec6000830189611392565b6113f96020830188611392565b61140660408301876112e8565b6114136060830186611392565b61142060808301856113c8565b61142d60a08301846113c8565b979650505050505050565b60006020828403121561144e5761144d6111fc565b5b600061145c8482850161124a565b91505092915050565b600060408201905061147a60008301856112e8565b6114876020830184611392565b9392505050565b7f4e487b7100000000000000000000000000000000000000000000000000000000600052601160045260246000fd5b60006114c88261125f565b91507fffffffffffffffffffffffffffffffffffffffffffffffffffffffffffffffff82036114fa576114f961148e565b5b600182019050919050565b600082825260208201905092915050565b7f43616c6c6572206973206e6f74207468652061726269747261746f7200000000600082015250565b600061154c601c83611505565b915061155782611516565b602082019050919050565b6000602082019050818103600083015261157b8161153f565b9050919050565b7f41677265656d656e74206973206e6f7420646973707574656400000000000000600082015250565b60006115b8601983611505565b91506115c382611582565b602082019050919050565b600060208201905081810360008301526115e7816115ab565b9050919050565b60006115f98261125f565b91506116048361125f565b925082820190508082111561161c5761161b61148e565b5b92915050565b7f496e636f727265637420616c6c6f636174696f6e000000000000000000000000600082015250565b6000611658601483611505565b915061166382611622565b602082019050919050565b600060208201905081810360008301526116878161164b565b9050919050565b60006040820190506116a36000830185611392565b6116b060208301846112e8565b9392505050565b6116c0816113bc565b81146116cb57600080fd5b50565b6000815190506116dd816116b7565b92915050565b6000602082840312156116f9576116f86111fc565b5b6000611707848285016116ce565b91505092915050565b600060408201905061172560008301856112e8565b61173260208301846112e8565b9392505050565b7f43616c6c6572206973206e6f7420746865206275796572000000000000000000600082015250565b600061176f601783611505565b915061177a82611739565b602082019050919050565b6000602082019050818103600083015261179e81611762565b9050919050565b7f41677265656d656e742069732064697370757465640000000000000000000000600082015250565b60006117db601583611505565b91506117e6826117a5565b602082019050919050565b6000602082019050818103600083015261180a816117ce565b9050919050565b7f41677265656d656e7420697320616c7265616479207265736f6c766564000000600082015250565b6000611847601d83611505565b915061185282611811565b602082019050919050565b600060208201905081810360008301526118768161183a565b9050919050565b7f496e636f72726563742045544820616d6f756e74000000000000000000000000600082015250565b60006118b3601483611505565b91506118be8261187d565b602082019050919050565b600060208201905081810360008301526118e2816118a6565b9050919050565b60006060820190506118fe6000830186611392565b61190b6020830185611392565b61191860408301846112e8565b949350505050565b7f546f6b656e207472616e73666572206661696c65640000000000000000000000600082015250565b6000611956601583611505565b915061196182611920565b602082019050919050565b6000602082019050818103600083015261198581611949565b9050919050565b7f43616c6c6572206973206e6f742070617274206f66207468652061677265656d60008201527f656e740000000000000000000000000000000000000000000000000000000000602082015250565b60006119e8602383611505565b91506119f38261198c565b604082019050919050565b60006020820190508181036000830152611a17816119db565b9050919050565b7f496e76616c69642061726269747261746f722061646472657373000000000000600082015250565b6000611a54601a83611505565b9150611a5f82611a1e565b602082019050919050565b60006020820190508181036000830152611a8381611a47565b905091905056fea2646970667358221220e06e6d38bef3aa88bd5e1fc6594042f50254fe37dbfef7f7230cd1a502b4091b64736f6c63430008140033",
  "linkReferences": {},
  "deployedLinkReferences": {}
}