{
  "_format": "hh-sol-artifact-1",
  "contractName": "SaleAgreement",
  "sourceName": "contracts/saleAgreement.sol",
  "abi": [
    {
      "inputs": [
        {
          "internalType": "address",
          "name": "_arbitrator",
          "type": "address"
        },
        {
          "internalType": "address",
          "name": "_owner",
          "type": "address"
        }
      ],
      "stateMutability": "nonpayable",
      "type": "constructor"
    },
    {
      "inputs": [
        {
          "internalType": "address",
          "name": "owner",
          "type": "address"
        }
      ],
      "name": "OwnableInvalidOwner",
      "type": "error"
    },
    {
      "inputs": [
        {
          "internalType": "address",
          "name": "account",
          "type": "address"
        }
      ],
      "name": "OwnableUnauthorizedAccount",
      "type": "error"
    },
    {
      "inputs": [],
      "name": "ReentrancyGuardReentrantCall",
      "type": "error"
    },
    {
      "anonymous": false,
      "inputs": [
        {
          "indexed": true,
          "internalType": "uint256",
          "name": "agreementId",
          "type": "uint256"
        },
        {
          "indexed": true,
          "internalType": "address",
          "name": "seller",
          "type": "address"
        },
        {
          "indexed": true,
          "internalType": "address",
          "name": "buyer",
          "type": "address"
        },
        {
          "indexed": false,
          "internalType": "uint256",
          "name": "price",
          "type": "uint256"
        },
        {
          "indexed": false,
          "internalType": "address",
          "name": "tokenAddress",
          "type": "address"
        }
      ],
      "name": "AgreementCreated",
      "type": "event"
    },
    {
      "anonymous": false,
      "inputs": [
        {
          "indexed": true,
          "internalType": "uint256",
          "name": "agreementId",
          "type": "uint256"
        }
      ],
      "name": "DisputeRaised",
      "type": "event"
    },
    {
      "anonymous": false,
      "inputs": [
        {
          "indexed": true,
          "internalType": "uint256",
          "name": "agreementId",
          "type": "uint256"
        },
        {
          "indexed": false,
          "internalType": "uint256",
          "name": "sellerAmount",
          "type": "uint256"
        },
        {
          "indexed": false,
          "internalType": "uint256",
          "name": "buyerAmount",
          "type": "uint256"
        }
      ],
      "name": "DisputeResolved",
      "type": "event"
    },
    {
      "anonymous": false,
      "inputs": [
        {
          "indexed": true,
          "internalType": "address",
          "name": "previousOwner",
          "type": "address"
        },
        {
          "indexed": true,
          "internalType": "address",
          "name": "newOwner",
          "type": "address"
        }
      ],
      "name": "OwnershipTransferred",
      "type": "event"
    },
    {
      "anonymous": false,
      "inputs": [
        {
          "indexed": true,
          "internalType": "uint256",
          "name": "agreementId",
          "type": "uint256"
        },
        {
          "indexed": true,
          "internalType": "address",
          "name": "payer",
          "type": "address"
        },
        {
          "indexed": false,
          "internalType": "uint256",
          "name": "amount",
          "type": "uint256"
        }
      ],
      "name": "PaymentDeposited",
      "type": "event"
    },
    {
      "inputs": [
        {
          "internalType": "uint256",
          "name": "",
          "type": "uint256"
        }
      ],
      "name": "agreements",
      "outputs": [
        {
          "internalType": "address",
          "name": "seller",
          "type": "address"
        },
        {
          "internalType": "address",
          "name": "buyer",
          "type": "address"
        },
        {
          "internalType": "uint256",
          "name": "price",
          "type": "uint256"
        },
        {
          "internalType": "address",
          "name": "tokenAddress",
          "type": "address"
        },
        {
          "internalType": "bool",
          "name": "isDisputed",
          "type": "bool"
        },
        {
          "internalType": "bool",
          "name": "isResolved",
          "type": "bool"
        }
      ],
      "stateMutability": "view",
      "type": "function"
    },
    {
      "inputs": [],
      "name": "arbitrator",
      "outputs": [
        {
          "internalType": "address",
          "name": "",
          "type": "address"
        }
      ],
      "stateMutability": "view",
      "type": "function"
    },
    {
      "inputs": [
        {
          "internalType": "address",
          "name": "_newArbitrator",
          "type": "address"
        }
      ],
      "name": "changeArbitrator",
      "outputs": [],
      "stateMutability": "nonpayable",
      "type": "function"
    },
    {
      "inputs": [
        {
          "internalType": "address",
          "name": "_buyer",
          "type": "address"
        },
        {
          "internalType": "uint256",
          "name": "_price",
          "type": "uint256"
        },
        {
          "internalType": "address",
          "name": "_tokenAddress",
          "type": "address"
        }
      ],
      "name": "createAgreement",
      "outputs": [
        {
          "internalType": "uint256",
          "name": "",
          "type": "uint256"
        }
      ],
      "stateMutability": "nonpayable",
      "type": "function"
    },
    {
      "inputs": [
        {
          "internalType": "uint256",
          "name": "_agreementId",
          "type": "uint256"
        }
      ],
      "name": "depositPayment",
      "outputs": [],
      "stateMutability": "payable",
      "type": "function"
    },
    {
      "inputs": [],
      "name": "nextAgreementId",
      "outputs": [
        {
          "internalType": "uint256",
          "name": "",
          "type": "uint256"
        }
      ],
      "stateMutability": "view",
      "type": "function"
    },
    {
      "inputs": [],
      "name": "owner",
      "outputs": [
        {
          "internalType": "address",
          "name": "",
          "type": "address"
        }
      ],
      "stateMutability": "view",
      "type": "function"
    },
    {
      "inputs": [
        {
          "internalType": "uint256",
          "name": "_agreementId",
          "type": "uint256"
        }
      ],
      "name": "raiseDispute",
      "outputs": [],
      "stateMutability": "nonpayable",
      "type": "function"
    },
    {
      "inputs": [],
      "name": "renounceOwnership",
      "outputs": [],
      "stateMutability": "nonpayable",
      "type": "function"
    },
    {
      "inputs": [
        {
          "internalType": "uint256",
          "name": "_agreementId",
          "type": "uint256"
        },
        {
          "internalType": "uint256",
          "name": "_sellerAmount",
          "type": "uint256"
        },
        {
          "internalType": "uint256",
          "name": "_buyerAmount",
          "type": "uint256"
        }
      ],
      "name": "resolveDispute",
      "outputs": [],
      "stateMutability": "nonpayable",
      "type": "function"
    },
    {
      "inputs": [
        {
          "internalType": "address",
          "name": "newOwner",
          "type": "address"
        }
      ],
      "name": "transferOwnership",
      "outputs": [],
      "stateMutability": "nonpayable",
      "type": "function"
    }
  ],
  "bytecode": "0x60806040523480156200001157600080fd5b50604051620027813803806200278183398181016040528101906200003791906200035d565b806001600081905550600073ffffffffffffffffffffffffffffffffffffffff168173ffffffffffffffffffffffffffffffffffffffff1603620000b55760006040517f1e4fbdf7000000000000000000000000000000000000000000000000000000008152600401620000ac9190620003b5565b60405180910390fd5b620000c6816200022a60201b60201c565b50620000e36713eb8bccfc61eb0960c01b620002f060201b60201c565b620000ff67ee644cd5c1d4907860c01b620002f060201b60201c565b6200011b67a0560c42a9be68d760c01b620002f060201b60201c565b6200013767a6cd4fe50405298d60c01b620002f060201b60201c565b600073ffffffffffffffffffffffffffffffffffffffff168273ffffffffffffffffffffffffffffffffffffffff1603620001a9576040517f08c379a0000000000000000000000000000000000000000000000000000000008152600401620001a09062000433565b60405180910390fd5b620001c56779f593e6289f7f0760c01b620002f060201b60201c565b620001e1671e0c5e5d7769f20460c01b620002f060201b60201c565b81600260006101000a81548173ffffffffffffffffffffffffffffffffffffffff021916908373ffffffffffffffffffffffffffffffffffffffff160217905550505062000455565b6000600160009054906101000a900473ffffffffffffffffffffffffffffffffffffffff16905081600160006101000a81548173ffffffffffffffffffffffffffffffffffffffff021916908373ffffffffffffffffffffffffffffffffffffffff1602179055508173ffffffffffffffffffffffffffffffffffffffff168173ffffffffffffffffffffffffffffffffffffffff167f8be0079c531659141344cd1fd0a4f28419497f9722a3daafe3b4186f6b6457e060405160405180910390a35050565b50565b600080fd5b600073ffffffffffffffffffffffffffffffffffffffff82169050919050565b60006200032582620002f8565b9050919050565b620003378162000318565b81146200034357600080fd5b50565b60008151905062000357816200032c565b92915050565b60008060408385031215620003775762000376620002f3565b5b6000620003878582860162000346565b92505060206200039a8582860162000346565b9150509250929050565b620003af8162000318565b82525050565b6000602082019050620003cc6000830184620003a4565b92915050565b600082825260208201905092915050565b7f496e76616c69642061726269747261746f722061646472657373000000000000600082015250565b60006200041b601a83620003d2565b91506200042882620003e3565b602082019050919050565b600060208201905081810360008301526200044e816200040c565b9050919050565b61231c80620004656000396000f3fe60806040526004361061009c5760003560e01c80638da5cb5b116100645780638da5cb5b14610165578063a5c1674e14610190578063bd14de96146101b9578063c9b99dab146101fb578063f2fde38b14610226578063fc548f081461024f5761009c565b80631f40b59e146100a15780633fabe74f146100de5780636b749c47146101075780636cc6cde114610123578063715018a61461014e575b600080fd5b3480156100ad57600080fd5b506100c860048036038101906100c39190611af1565b610278565b6040516100d59190611b53565b60405180910390f35b3480156100ea57600080fd5b5061010560048036038101906101009190611b6e565b610528565b005b610121600480360381019061011c9190611bc1565b610cd8565b005b34801561012f57600080fd5b506101386112b1565b6040516101459190611bfd565b60405180910390f35b34801561015a57600080fd5b506101636112d7565b005b34801561017157600080fd5b5061017a6112eb565b6040516101879190611bfd565b60405180910390f35b34801561019c57600080fd5b506101b760048036038101906101b29190611bc1565b611315565b005b3480156101c557600080fd5b506101e060048036038101906101db9190611bc1565b611608565b6040516101f296959493929190611c33565b60405180910390f35b34801561020757600080fd5b506102106116be565b60405161021d9190611b53565b60405180910390f35b34801561023257600080fd5b5061024d60048036038101906102489190611c94565b6116c4565b005b34801561025b57600080fd5b5061027660048036038101906102719190611c94565b61174a565b005b600061028e675a60ac9c33b510d160c01b6118a5565b6102a267af0374f11a516cdf60c01b6118a5565b6040518060c001604052803373ffffffffffffffffffffffffffffffffffffffff1681526020018573ffffffffffffffffffffffffffffffffffffffff1681526020018481526020018373ffffffffffffffffffffffffffffffffffffffff1681526020016000151581526020016000151581525060036000600454815260200190815260200160002060008201518160000160006101000a81548173ffffffffffffffffffffffffffffffffffffffff021916908373ffffffffffffffffffffffffffffffffffffffff16021790555060208201518160010160006101000a81548173ffffffffffffffffffffffffffffffffffffffff021916908373ffffffffffffffffffffffffffffffffffffffff1602179055506040820151816002015560608201518160030160006101000a81548173ffffffffffffffffffffffffffffffffffffffff021916908373ffffffffffffffffffffffffffffffffffffffff16021790555060808201518160030160146101000a81548160ff02191690831515021790555060a08201518160030160156101000a81548160ff02191690831515021790555090505061046267151a3df9e4a1c70160c01b6118a5565b61047667f619dd95fbb6b83a60c01b6118a5565b8373ffffffffffffffffffffffffffffffffffffffff163373ffffffffffffffffffffffffffffffffffffffff166004547f0c73c79e096f50541645465910102237c855a5979f3e3a5b95ec0323a86e277386866040516104d8929190611cc1565b60405180910390a46104f467e30b681a5fed789b60c01b6118a5565b610508679469c96cce6bb6a860c01b6118a5565b6004600081548092919061051b90611d19565b9190505590509392505050565b61053c679c434777ca0c071360c01b6118a5565b61055067562999ff45bf8bc960c01b6118a5565b61056467043868196f16973d60c01b6118a5565b61057867577d67eebbf4cc5f60c01b6118a5565b61058c678e0a835d1c43815160c01b6118a5565b600260009054906101000a900473ffffffffffffffffffffffffffffffffffffffff1673ffffffffffffffffffffffffffffffffffffffff163373ffffffffffffffffffffffffffffffffffffffff161461061c576040517f08c379a000000000000000000000000000000000000000000000000000000000815260040161061390611dbe565b60405180910390fd5b610630671530b3b6c0ae743760c01b6118a5565b610644675f8ffac62d2f168960c01b6118a5565b610658672d41f13f32a2364260c01b6118a5565b61066c67d454f925bd4c0dfa60c01b6118a5565b610680671082004ac8b24b8760c01b6118a5565b610694673ab6ac940b87d34560c01b6118a5565b60006003600085815260200190815260200160002090506106bf675583216f89dc9a7960c01b6118a5565b6106d36765b5d700d9c30b7560c01b6118a5565b6106e7677820ceb7ec166ee060c01b6118a5565b8060030160149054906101000a900460ff16610738576040517f08c379a000000000000000000000000000000000000000000000000000000000815260040161072f90611e2a565b60405180910390fd5b61074c67b53ed74b633500be60c01b6118a5565b610760678fe07ac850c5214560c01b6118a5565b61077467cacad01d33cb434160c01b6118a5565b610788670aaa58aaa34ca92d60c01b6118a5565b806002015482846107999190611e4a565b146107d9576040517f08c379a00000000000000000000000000000000000000000000000000000000081526004016107d090611eca565b60405180910390fd5b6107ed67b503c08f75d5f01960c01b6118a5565b61080167c8c1cb76ff7069c060c01b6118a5565b61081567fbb81451c6afd20560c01b6118a5565b600073ffffffffffffffffffffffffffffffffffffffff168160030160009054906101000a900473ffffffffffffffffffffffffffffffffffffffff1673ffffffffffffffffffffffffffffffffffffffff16036109ac576108816753dd22082ff2736460c01b6118a5565b61089567bdfd699da53dd02760c01b6118a5565b6108a9671b1b2a9b7abbcac960c01b6118a5565b8060000160009054906101000a900473ffffffffffffffffffffffffffffffffffffffff1673ffffffffffffffffffffffffffffffffffffffff166108fc849081150290604051600060405180830381858888f19350505050158015610913573d6000803e3d6000fd5b506109286794ff6f4b34dcd61660c01b6118a5565b61093c67ef1dd3ef4669ec4a60c01b6118a5565b8060010160009054906101000a900473ffffffffffffffffffffffffffffffffffffffff1673ffffffffffffffffffffffffffffffffffffffff166108fc839081150290604051600060405180830381858888f193505050501580156109a6573d6000803e3d6000fd5b50610c3f565b6109c06768eb8149cab2f22660c01b6118a5565b6109d46778d6a88eabb09a5f60c01b6118a5565b6109e86781823149c3ae33da60c01b6118a5565b60008160030160009054906101000a900473ffffffffffffffffffffffffffffffffffffffff169050610a2567eb84ade1d72386f060c01b6118a5565b610a3967521fa937bbbf5d0f60c01b6118a5565b6000841115610b1257610a56678b38e3f0c7033bc960c01b6118a5565b610a6a673d48f7cccce0324860c01b6118a5565b8073ffffffffffffffffffffffffffffffffffffffff1663a9059cbb8360000160009054906101000a900473ffffffffffffffffffffffffffffffffffffffff16866040518363ffffffff1660e01b8152600401610ac9929190611eea565b6020604051808303816000875af1158015610ae8573d6000803e3d6000fd5b505050506040513d601f19601f82011682018060405250810190610b0c9190611f3f565b50610b27565b610b2667b10e5e54131a8fd760c01b6118a5565b5b610b3b67e83e73107463c37b60c01b6118a5565b610b4f67cc41d8100f8afac560c01b6118a5565b6000831115610c2857610b6c6784b5b4f8e83f937b60c01b6118a5565b610b80678a6a3a5bd84c88b760c01b6118a5565b8073ffffffffffffffffffffffffffffffffffffffff1663a9059cbb8360010160009054906101000a900473ffffffffffffffffffffffffffffffffffffffff16856040518363ffffffff1660e01b8152600401610bdf929190611eea565b6020604051808303816000875af1158015610bfe573d6000803e3d6000fd5b505050506040513d601f19601f82011682018060405250810190610c229190611f3f565b50610c3d565b610c3c678b1c6e695723d07460c01b6118a5565b5b505b610c53673dc23aa29a307f6060c01b6118a5565b60018160030160156101000a81548160ff021916908315150217905550610c8467940327bc952f508660c01b6118a5565b610c9867ea2e1646e4a93f4860c01b6118a5565b837f959dc01840aa516bf9407cffa45326c7b6821c48feff7b91eb0c743c8f460fd68484604051610cca929190611f6c565b60405180910390a250505050565b610cec67e16820ea88c6a03660c01b6118a5565b610cf46118a8565b610d0867eec26363789b78fb60c01b6118a5565b610d1c67f8ebdaedba067ed060c01b6118a5565b610d30670bde53c9eacd22ed60c01b6118a5565b610d4467814e89688377755b60c01b6118a5565b6000600360008381526020019081526020016000209050610d6f67fce8970ddd99a00a60c01b6118a5565b610d83677f0675ddd7f1de9060c01b6118a5565b610d9767b14e782b255e7f6e60c01b6118a5565b8060010160009054906101000a900473ffffffffffffffffffffffffffffffffffffffff1673ffffffffffffffffffffffffffffffffffffffff163373ffffffffffffffffffffffffffffffffffffffff1614610e29576040517f08c379a0000000000000000000000000000000000000000000000000000000008152600401610e2090611fe1565b60405180910390fd5b610e3d6778b44a5a9e7f237a60c01b6118a5565b610e51676974d2b3693dfa1a60c01b6118a5565b610e656771332ecbdb8c0cef60c01b6118a5565b610e7967a1e7a87b55ca4ad160c01b6118a5565b8060030160149054906101000a900460ff1615610ecb576040517f08c379a0000000000000000000000000000000000000000000000000000000008152600401610ec29061204d565b60405180910390fd5b610edf67e8c263ac70264a4960c01b6118a5565b610ef36720223b70a5be9a1160c01b6118a5565b610f07670b510882dead0f8760c01b6118a5565b610f1b6730961ad4479d184760c01b6118a5565b8060030160159054906101000a900460ff1615610f6d576040517f08c379a0000000000000000000000000000000000000000000000000000000008152600401610f64906120b9565b60405180910390fd5b610f8167993f61310e46d8b360c01b6118a5565b610f9567ce5268a2e9cda57260c01b6118a5565b610fa967feea183171cce47660c01b6118a5565b600073ffffffffffffffffffffffffffffffffffffffff168160030160009054906101000a900473ffffffffffffffffffffffffffffffffffffffff1673ffffffffffffffffffffffffffffffffffffffff16036110b05761101567a8fc352ef111a58460c01b6118a5565b61102967697f77d0f33cf3d260c01b6118a5565b61103d6709e091dac4c1acf760c01b6118a5565b6110516742b3564a3e5343ef60c01b6118a5565b80600201543414611097576040517f08c379a000000000000000000000000000000000000000000000000000000000815260040161108e90612125565b60405180910390fd5b6110ab67fd9b03540ca896b060c01b6118a5565b61122a565b6110c46733d8e9f1eebe892a60c01b6118a5565b6110d86774431536692fb6e660c01b6118a5565b6110ec67b0a91cdc8c1b6ae160c01b6118a5565b60008160030160009054906101000a900473ffffffffffffffffffffffffffffffffffffffff16905061112967963aafc978a8aed060c01b6118a5565b61113d67a67240314aace6f460c01b6118a5565b61115167f120b4cadd5acac060c01b6118a5565b8073ffffffffffffffffffffffffffffffffffffffff166323b872dd333085600201546040518463ffffffff1660e01b815260040161119293929190612145565b6020604051808303816000875af11580156111b1573d6000803e3d6000fd5b505050506040513d601f19601f820116820180604052508101906111d59190611f3f565b611214576040517f08c379a000000000000000000000000000000000000000000000000000000000815260040161120b906121c8565b60405180910390fd5b61122867e1edb94139c833d460c01b6118a5565b505b61123e677f47e71081f1b5f460c01b6118a5565b6112526729052edb0946debc60c01b6118a5565b3373ffffffffffffffffffffffffffffffffffffffff16827f71284872bb4c088a81295dff2513729babbccfeda38a8d824bb1a73bcaab494e836002015460405161129d9190611b53565b60405180910390a3506112ae6118ee565b50565b600260009054906101000a900473ffffffffffffffffffffffffffffffffffffffff1681565b6112df6118f8565b6112e9600061197f565b565b6000600160009054906101000a900473ffffffffffffffffffffffffffffffffffffffff16905090565b611329670c600aff2e4a904b60c01b6118a5565b61133d6733ef38379f29d98c60c01b6118a5565b611351670139d1184897318b60c01b6118a5565b600060036000838152602001908152602001600020905061137c67905c10f10716a32e60c01b6118a5565b6113906749cbdfa8cf65b1dc60c01b6118a5565b6113a4678a6230bd509e215e60c01b6118a5565b8060010160009054906101000a900473ffffffffffffffffffffffffffffffffffffffff1673ffffffffffffffffffffffffffffffffffffffff163373ffffffffffffffffffffffffffffffffffffffff16148015611413575061141267365c96814285dd9c60c01b611a45565b5b8061148957508060000160009054906101000a900473ffffffffffffffffffffffffffffffffffffffff1673ffffffffffffffffffffffffffffffffffffffff163373ffffffffffffffffffffffffffffffffffffffff1614801561148857506114876799c05bd081993edf60c01b611a45565b5b5b6114c8576040517f08c379a00000000000000000000000000000000000000000000000000000000081526004016114bf9061225a565b60405180910390fd5b6114dc679938d644f6568c8260c01b6118a5565b6114f067d3960a08ce018dc660c01b6118a5565b61150467de0b004053ffa70060c01b6118a5565b6115186769de5bcffde1290f60c01b6118a5565b8060030160159054906101000a900460ff161561156a576040517f08c379a0000000000000000000000000000000000000000000000000000000008152600401611561906120b9565b60405180910390fd5b61157e67cdcd8fa06294208d60c01b6118a5565b6115926756434335051d664460c01b6118a5565b60018160030160146101000a81548160ff0219169083151502179055506115c3676c869a55675faea060c01b6118a5565b6115d767f47b22e8493c537060c01b6118a5565b817f04901f83201c8724eadf084436db8aa391820bae6d11f9f78a17edb6f2eef3cf60405160405180910390a25050565b60036020528060005260406000206000915090508060000160009054906101000a900473ffffffffffffffffffffffffffffffffffffffff16908060010160009054906101000a900473ffffffffffffffffffffffffffffffffffffffff16908060020154908060030160009054906101000a900473ffffffffffffffffffffffffffffffffffffffff16908060030160149054906101000a900460ff16908060030160159054906101000a900460ff16905086565b60045481565b6116cc6118f8565b600073ffffffffffffffffffffffffffffffffffffffff168173ffffffffffffffffffffffffffffffffffffffff160361173e5760006040517f1e4fbdf70000000000000000000000000000000000000000000000000000000081526004016117359190611bfd565b60405180910390fd5b6117478161197f565b50565b61175e67ca1bc3aa6c19a60060c01b6118a5565b6117666118f8565b61177a6797c78da9992ccdcc60c01b6118a5565b61178e67aa0748ca06660b9560c01b6118a5565b6117a267dac944cb93c9897360c01b6118a5565b6117b6676f56a6047af1d53e60c01b6118a5565b6117ca672b7d477ec6161f0660c01b6118a5565b600073ffffffffffffffffffffffffffffffffffffffff168173ffffffffffffffffffffffffffffffffffffffff1603611839576040517f08c379a0000000000000000000000000000000000000000000000000000000008152600401611830906122c6565b60405180910390fd5b61184d6715fcc6eee9191df060c01b6118a5565b611861673c3c68d54b9b4a8c60c01b6118a5565b80600260006101000a81548173ffffffffffffffffffffffffffffffffffffffff021916908373ffffffffffffffffffffffffffffffffffffffff16021790555050565b50565b6002600054036118e4576040517f3ee5aeb500000000000000000000000000000000000000000000000000000000815260040160405180910390fd5b6002600081905550565b6001600081905550565b611900611a50565b73ffffffffffffffffffffffffffffffffffffffff1661191e6112eb565b73ffffffffffffffffffffffffffffffffffffffff161461197d57611941611a50565b6040517f118cdaa70000000000000000000000000000000000000000000000000000000081526004016119749190611bfd565b60405180910390fd5b565b6000600160009054906101000a900473ffffffffffffffffffffffffffffffffffffffff16905081600160006101000a81548173ffffffffffffffffffffffffffffffffffffffff021916908373ffffffffffffffffffffffffffffffffffffffff1602179055508173ffffffffffffffffffffffffffffffffffffffff168173ffffffffffffffffffffffffffffffffffffffff167f8be0079c531659141344cd1fd0a4f28419497f9722a3daafe3b4186f6b6457e060405160405180910390a35050565b600060019050919050565b600033905090565b600080fd5b600073ffffffffffffffffffffffffffffffffffffffff82169050919050565b6000611a8882611a5d565b9050919050565b611a9881611a7d565b8114611aa357600080fd5b50565b600081359050611ab581611a8f565b92915050565b6000819050919050565b611ace81611abb565b8114611ad957600080fd5b50565b600081359050611aeb81611ac5565b92915050565b600080600060608486031215611b0a57611b09611a58565b5b6000611b1886828701611aa6565b9350506020611b2986828701611adc565b9250506040611b3a86828701611aa6565b9150509250925092565b611b4d81611abb565b82525050565b6000602082019050611b686000830184611b44565b92915050565b600080600060608486031215611b8757611b86611a58565b5b6000611b9586828701611adc565b9350506020611ba686828701611adc565b9250506040611bb786828701611adc565b9150509250925092565b600060208284031215611bd757611bd6611a58565b5b6000611be584828501611adc565b91505092915050565b611bf781611a7d565b82525050565b6000602082019050611c126000830184611bee565b92915050565b60008115159050919050565b611c2d81611c18565b82525050565b600060c082019050611c486000830189611bee565b611c556020830188611bee565b611c626040830187611b44565b611c6f6060830186611bee565b611c7c6080830185611c24565b611c8960a0830184611c24565b979650505050505050565b600060208284031215611caa57611ca9611a58565b5b6000611cb884828501611aa6565b91505092915050565b6000604082019050611cd66000830185611b44565b611ce36020830184611bee565b9392505050565b7f4e487b7100000000000000000000000000000000000000000000000000000000600052601160045260246000fd5b6000611d2482611abb565b91507fffffffffffffffffffffffffffffffffffffffffffffffffffffffffffffffff8203611d5657611d55611cea565b5b600182019050919050565b600082825260208201905092915050565b7f43616c6c6572206973206e6f74207468652061726269747261746f7200000000600082015250565b6000611da8601c83611d61565b9150611db382611d72565b602082019050919050565b60006020820190508181036000830152611dd781611d9b565b9050919050565b7f41677265656d656e74206973206e6f7420646973707574656400000000000000600082015250565b6000611e14601983611d61565b9150611e1f82611dde565b602082019050919050565b60006020820190508181036000830152611e4381611e07565b9050919050565b6000611e5582611abb565b9150611e6083611abb565b9250828201905080821115611e7857611e77611cea565b5b92915050565b7f496e636f727265637420616c6c6f636174696f6e000000000000000000000000600082015250565b6000611eb4601483611d61565b9150611ebf82611e7e565b602082019050919050565b60006020820190508181036000830152611ee381611ea7565b9050919050565b6000604082019050611eff6000830185611bee565b611f0c6020830184611b44565b9392505050565b611f1c81611c18565b8114611f2757600080fd5b50565b600081519050611f3981611f13565b92915050565b600060208284031215611f5557611f54611a58565b5b6000611f6384828501611f2a565b91505092915050565b6000604082019050611f816000830185611b44565b611f8e6020830184611b44565b9392505050565b7f43616c6c6572206973206e6f7420746865206275796572000000000000000000600082015250565b6000611fcb601783611d61565b9150611fd682611f95565b602082019050919050565b60006020820190508181036000830152611ffa81611fbe565b9050919050565b7f41677265656d656e742069732064697370757465640000000000000000000000600082015250565b6000612037601583611d61565b915061204282612001565b602082019050919050565b600060208201905081810360008301526120668161202a565b9050919050565b7f41677265656d656e7420697320616c7265616479207265736f6c766564000000600082015250565b60006120a3601d83611d61565b91506120ae8261206d565b602082019050919050565b600060208201905081810360008301526120d281612096565b9050919050565b7f496e636f72726563742045544820616d6f756e74000000000000000000000000600082015250565b600061210f601483611d61565b915061211a826120d9565b602082019050919050565b6000602082019050818103600083015261213e81612102565b9050919050565b600060608201905061215a6000830186611bee565b6121676020830185611bee565b6121746040830184611b44565b949350505050565b7f546f6b656e207472616e73666572206661696c65640000000000000000000000600082015250565b60006121b2601583611d61565b91506121bd8261217c565b602082019050919050565b600060208201905081810360008301526121e1816121a5565b9050919050565b7f43616c6c6572206973206e6f742070617274206f66207468652061677265656d60008201527f656e740000000000000000000000000000000000000000000000000000000000602082015250565b6000612244602383611d61565b915061224f826121e8565b604082019050919050565b6000602082019050818103600083015261227381612237565b9050919050565b7f496e76616c69642061726269747261746f722061646472657373000000000000600082015250565b60006122b0601a83611d61565b91506122bb8261227a565b602082019050919050565b600060208201905081810360008301526122df816122a3565b905091905056fea2646970667358221220346a8acb82bc4ae08ec42fa222b3df430cea80c31caf0b76e14a3f5e64e3b66764736f6c63430008140033",
  "linkReferences": {},
  "deployedLinkReferences": {}
}